{
  "contractName": "MeToken",
  "abi": [
    {
      "inputs": [],
      "stateMutability": "nonpayable",
      "type": "constructor"
    },
    {
      "anonymous": false,
      "inputs": [
        {
          "indexed": true,
          "internalType": "address",
          "name": "owner",
          "type": "address"
        },
        {
          "indexed": true,
          "internalType": "address",
          "name": "spender",
          "type": "address"
        },
        {
          "indexed": false,
          "internalType": "uint256",
          "name": "value",
          "type": "uint256"
        }
      ],
      "name": "Approval",
      "type": "event"
    },
    {
      "anonymous": false,
      "inputs": [
        {
          "indexed": false,
          "internalType": "address",
          "name": "account",
          "type": "address"
        },
        {
          "indexed": false,
          "internalType": "uint256",
          "name": "amount",
          "type": "uint256"
        }
      ],
      "name": "Burned",
      "type": "event"
    },
    {
      "anonymous": false,
      "inputs": [
        {
          "indexed": true,
          "internalType": "address",
          "name": "previousOwner",
          "type": "address"
        },
        {
          "indexed": true,
          "internalType": "address",
          "name": "newOwner",
          "type": "address"
        }
      ],
      "name": "OwnershipTransferred",
      "type": "event"
    },
    {
      "anonymous": false,
      "inputs": [
        {
          "indexed": true,
          "internalType": "address",
          "name": "from",
          "type": "address"
        },
        {
          "indexed": true,
          "internalType": "address",
          "name": "to",
          "type": "address"
        },
        {
          "indexed": false,
          "internalType": "uint256",
          "name": "value",
          "type": "uint256"
        }
      ],
      "name": "Transfer",
      "type": "event"
    },
    {
      "inputs": [
        {
          "internalType": "address",
          "name": "",
          "type": "address"
        }
      ],
      "name": "_points",
      "outputs": [
        {
          "internalType": "uint256",
          "name": "",
          "type": "uint256"
        }
      ],
      "stateMutability": "view",
      "type": "function",
      "constant": true
    },
    {
      "inputs": [],
      "name": "_totalAtoms",
      "outputs": [
        {
          "internalType": "uint256",
          "name": "",
          "type": "uint256"
        }
      ],
      "stateMutability": "view",
      "type": "function",
      "constant": true
    },
    {
      "inputs": [],
      "name": "_totalPoints",
      "outputs": [
        {
          "internalType": "uint256",
          "name": "",
          "type": "uint256"
        }
      ],
      "stateMutability": "view",
      "type": "function",
      "constant": true
    },
    {
      "inputs": [
        {
          "internalType": "address",
          "name": "owner",
          "type": "address"
        },
        {
          "internalType": "address",
          "name": "spender",
          "type": "address"
        }
      ],
      "name": "allowance",
      "outputs": [
        {
          "internalType": "uint256",
          "name": "",
          "type": "uint256"
        }
      ],
      "stateMutability": "view",
      "type": "function",
      "constant": true
    },
    {
      "inputs": [
        {
          "internalType": "address",
          "name": "spender",
          "type": "address"
        },
        {
          "internalType": "uint256",
          "name": "amount",
          "type": "uint256"
        }
      ],
      "name": "approve",
      "outputs": [
        {
          "internalType": "bool",
          "name": "",
          "type": "bool"
        }
      ],
      "stateMutability": "nonpayable",
      "type": "function"
    },
    {
      "inputs": [],
      "name": "decimals",
      "outputs": [
        {
          "internalType": "uint8",
          "name": "",
          "type": "uint8"
        }
      ],
      "stateMutability": "view",
      "type": "function",
      "constant": true
    },
    {
      "inputs": [
        {
          "internalType": "address",
          "name": "spender",
          "type": "address"
        },
        {
          "internalType": "uint256",
          "name": "subtractedValue",
          "type": "uint256"
        }
      ],
      "name": "decreaseAllowance",
      "outputs": [
        {
          "internalType": "bool",
          "name": "",
          "type": "bool"
        }
      ],
      "stateMutability": "nonpayable",
      "type": "function"
    },
    {
      "inputs": [
        {
          "internalType": "address",
          "name": "spender",
          "type": "address"
        },
        {
          "internalType": "uint256",
          "name": "addedValue",
          "type": "uint256"
        }
      ],
      "name": "increaseAllowance",
      "outputs": [
        {
          "internalType": "bool",
          "name": "",
          "type": "bool"
        }
      ],
      "stateMutability": "nonpayable",
      "type": "function"
    },
    {
      "inputs": [],
      "name": "name",
      "outputs": [
        {
          "internalType": "string",
          "name": "",
          "type": "string"
        }
      ],
      "stateMutability": "view",
      "type": "function",
      "constant": true
    },
    {
      "inputs": [],
      "name": "owner",
      "outputs": [
        {
          "internalType": "address",
          "name": "",
          "type": "address"
        }
      ],
      "stateMutability": "view",
      "type": "function",
      "constant": true
    },
    {
      "inputs": [],
      "name": "renounceOwnership",
      "outputs": [],
      "stateMutability": "nonpayable",
      "type": "function"
    },
    {
      "inputs": [],
      "name": "symbol",
      "outputs": [
        {
          "internalType": "string",
          "name": "",
          "type": "string"
        }
      ],
      "stateMutability": "view",
      "type": "function",
      "constant": true
    },
    {
      "inputs": [
        {
          "internalType": "address",
          "name": "recipient",
          "type": "address"
        },
        {
          "internalType": "uint256",
          "name": "amount",
          "type": "uint256"
        }
      ],
      "name": "transfer",
      "outputs": [
        {
          "internalType": "bool",
          "name": "",
          "type": "bool"
        }
      ],
      "stateMutability": "nonpayable",
      "type": "function"
    },
    {
      "inputs": [
        {
          "internalType": "address",
          "name": "sender",
          "type": "address"
        },
        {
          "internalType": "address",
          "name": "recipient",
          "type": "address"
        },
        {
          "internalType": "uint256",
          "name": "amount",
          "type": "uint256"
        }
      ],
      "name": "transferFrom",
      "outputs": [
        {
          "internalType": "bool",
          "name": "",
          "type": "bool"
        }
      ],
      "stateMutability": "nonpayable",
      "type": "function"
    },
    {
      "inputs": [
        {
          "internalType": "address",
          "name": "newOwner",
          "type": "address"
        }
      ],
      "name": "transferOwnership",
      "outputs": [],
      "stateMutability": "nonpayable",
      "type": "function"
    },
    {
      "inputs": [
        {
          "internalType": "uint256",
          "name": "atoms",
          "type": "uint256"
        }
      ],
      "name": "atomsToPoints",
      "outputs": [
        {
          "internalType": "uint256",
          "name": "",
          "type": "uint256"
        }
      ],
      "stateMutability": "view",
      "type": "function",
      "constant": true
    },
    {
      "inputs": [
        {
          "internalType": "uint256",
          "name": "points",
          "type": "uint256"
        }
      ],
      "name": "pointsToAtoms",
      "outputs": [
        {
          "internalType": "uint256",
          "name": "",
          "type": "uint256"
        }
      ],
      "stateMutability": "view",
      "type": "function",
      "constant": true
    },
    {
      "inputs": [
        {
          "internalType": "uint256",
          "name": "newTotalAtoms",
          "type": "uint256"
        },
        {
          "internalType": "address[]",
          "name": "minters",
          "type": "address[]"
        },
        {
          "internalType": "uint256[]",
          "name": "mintAmounts",
          "type": "uint256[]"
        }
      ],
      "name": "relay",
      "outputs": [],
      "stateMutability": "nonpayable",
      "type": "function"
    },
    {
      "inputs": [],
      "name": "totalSupply",
      "outputs": [
        {
          "internalType": "uint256",
          "name": "",
          "type": "uint256"
        }
      ],
      "stateMutability": "view",
      "type": "function",
      "constant": true
    },
    {
      "inputs": [
        {
          "internalType": "address",
          "name": "tokenHolder",
          "type": "address"
        }
      ],
      "name": "balanceOf",
      "outputs": [
        {
          "internalType": "uint256",
          "name": "",
          "type": "uint256"
        }
      ],
      "stateMutability": "view",
      "type": "function",
      "constant": true
    },
    {
      "inputs": [
        {
          "internalType": "uint256",
          "name": "amount",
          "type": "uint256"
        }
      ],
      "name": "mint",
      "outputs": [],
      "stateMutability": "nonpayable",
      "type": "function"
    },
    {
      "inputs": [
        {
          "internalType": "uint256",
          "name": "amount",
          "type": "uint256"
        }
      ],
      "name": "burn",
      "outputs": [],
      "stateMutability": "nonpayable",
      "type": "function"
    }
  ],
  "bytecode": "0x60806040523480156200001157600080fd5b506040518060400160405280600781526020017f4d65546f6b656e000000000000000000000000000000000000000000000000008152506040518060400160405280600381526020017f554d4500000000000000000000000000000000000000000000000000000000008152508160039080519060200190620000969291906200018f565b508060049080519060200190620000af9291906200018f565b5050506000620000c46200018760201b60201c565b905080600560006101000a81548173ffffffffffffffffffffffffffffffffffffffff021916908373ffffffffffffffffffffffffffffffffffffffff1602179055508073ffffffffffffffffffffffffffffffffffffffff16600073ffffffffffffffffffffffffffffffffffffffff167f8be0079c531659141344cd1fd0a4f28419497f9722a3daafe3b4186f6b6457e060405160405180910390a350678ac7230489e80000600781905550678ac7230489e80000600681905550620002a4565b600033905090565b8280546200019d906200023f565b90600052602060002090601f016020900481019282620001c157600085556200020d565b82601f10620001dc57805160ff19168380011785556200020d565b828001600101855582156200020d579182015b828111156200020c578251825591602001919060010190620001ef565b5b5090506200021c919062000220565b5090565b5b808211156200023b57600081600090555060010162000221565b5090565b600060028204905060018216806200025857607f821691505b602082108114156200026f576200026e62000275565b5b50919050565b7f4e487b7100000000000000000000000000000000000000000000000000000000600052602260045260246000fd5b61244080620002b46000396000f3fe608060405234801561001057600080fd5b50600436106101425760003560e01c8063715018a6116100b8578063a9059cbb1161007c578063a9059cbb1461038b578063d41b430f146103bb578063dd62ed3e146103d9578063e5590d8214610409578063e614b21d14610427578063f2fde38b1461045757610142565b8063715018a6146102f95780638da5cb5b1461030357806395d89b4114610321578063a0712d681461033f578063a457c2d71461035b57610142565b8063313ce5671161010a578063313ce56714610213578063333998d114610231578063395093511461024d57806342966c681461027d5780635eb873be1461029957806370a08231146102c957610142565b806306fdde0314610147578063095ea7b3146101655780630ec9c8231461019557806318160ddd146101c557806323b872dd146101e3575b600080fd5b61014f610473565b60405161015c9190611e7a565b60405180910390f35b61017f600480360381019061017a9190611846565b610505565b60405161018c9190611e5f565b60405180910390f35b6101af60048036038101906101aa9190611792565b610523565b6040516101bc919061201c565b60405180910390f35b6101cd61053b565b6040516101da919061201c565b60405180910390f35b6101fd60048036038101906101f891906117f7565b610545565b60405161020a9190611e5f565b60405180910390f35b61021b610646565b6040516102289190612037565b60405180910390f35b61024b600480360381019061024691906118ab565b61064f565b005b61026760048036038101906102629190611846565b610793565b6040516102749190611e5f565b60405180910390f35b61029760048036038101906102929190611882565b61083f565b005b6102b360048036038101906102ae9190611882565b610853565b6040516102c0919061201c565b60405180910390f35b6102e360048036038101906102de9190611792565b610890565b6040516102f0919061201c565b60405180910390f35b6103016108e1565b005b61030b610a1e565b6040516103189190611e1b565b60405180910390f35b610329610a48565b6040516103369190611e7a565b60405180910390f35b61035960048036038101906103549190611882565b610ada565b005b61037560048036038101906103709190611846565b610aee565b6040516103829190611e5f565b60405180910390f35b6103a560048036038101906103a09190611846565b610be2565b6040516103b29190611e5f565b60405180910390f35b6103c3610c00565b6040516103d0919061201c565b60405180910390f35b6103f360048036038101906103ee91906117bb565b610c06565b604051610400919061201c565b60405180910390f35b610411610c8d565b60405161041e919061201c565b60405180910390f35b610441600480360381019061043c9190611882565b610c93565b60405161044e919061201c565b60405180910390f35b610471600480360381019061046c9190611792565b610cb7565b005b60606003805461048290612294565b80601f01602080910402602001604051908101604052809291908181526020018280546104ae90612294565b80156104fb5780601f106104d0576101008083540402835291602001916104fb565b820191906000526020600020905b8154815290600101906020018083116104de57829003601f168201915b5050505050905090565b6000610519610512610e63565b8484610e6b565b6001905092915050565b60086020528060005260406000206000915090505481565b6000600654905090565b6000610552848484611036565b6000600160008673ffffffffffffffffffffffffffffffffffffffff1673ffffffffffffffffffffffffffffffffffffffff168152602001908152602001600020600061059d610e63565b73ffffffffffffffffffffffffffffffffffffffff1673ffffffffffffffffffffffffffffffffffffffff1681526020019081526020016000205490508281101561061d576040517f08c379a000000000000000000000000000000000000000000000000000000000815260040161061490611f1c565b60405180910390fd5b61063a85610629610e63565b858461063591906121d8565b610e6b565b60019150509392505050565b60006012905090565b610657610e63565b73ffffffffffffffffffffffffffffffffffffffff16610675610a1e565b73ffffffffffffffffffffffffffffffffffffffff16146106cb576040517f08c379a00000000000000000000000000000000000000000000000000000000081526004016106c290611f3c565b60405180910390fd5b82600660008282546106dd91906120f7565b9250508190555060005b825181101561078d5761077a83828151811061072c577f4e487b7100000000000000000000000000000000000000000000000000000000600052603260045260246000fd5b602002602001015183838151811061076d577f4e487b7100000000000000000000000000000000000000000000000000000000600052603260045260246000fd5b602002602001015161118b565b8080610785906122c6565b9150506106e7565b50505050565b60006108356107a0610e63565b8484600160006107ae610e63565b73ffffffffffffffffffffffffffffffffffffffff1673ffffffffffffffffffffffffffffffffffffffff16815260200190815260200160002060008873ffffffffffffffffffffffffffffffffffffffff1673ffffffffffffffffffffffffffffffffffffffff1681526020019081526020016000205461083091906120f7565b610e6b565b6001905092915050565b61085061084a610e63565b826112a9565b50565b600060065460016006546007548561086b919061217e565b61087591906120f7565b61087f91906121d8565b610889919061214d565b9050919050565b60006108da600860008473ffffffffffffffffffffffffffffffffffffffff1673ffffffffffffffffffffffffffffffffffffffff16815260200190815260200160002054610c93565b9050919050565b6108e9610e63565b73ffffffffffffffffffffffffffffffffffffffff16610907610a1e565b73ffffffffffffffffffffffffffffffffffffffff161461095d576040517f08c379a000000000000000000000000000000000000000000000000000000000815260040161095490611f3c565b60405180910390fd5b600073ffffffffffffffffffffffffffffffffffffffff16600560009054906101000a900473ffffffffffffffffffffffffffffffffffffffff1673ffffffffffffffffffffffffffffffffffffffff167f8be0079c531659141344cd1fd0a4f28419497f9722a3daafe3b4186f6b6457e060405160405180910390a36000600560006101000a81548173ffffffffffffffffffffffffffffffffffffffff021916908373ffffffffffffffffffffffffffffffffffffffff160217905550565b6000600560009054906101000a900473ffffffffffffffffffffffffffffffffffffffff16905090565b606060048054610a5790612294565b80601f0160208091040260200160405190810160405280929190818152602001828054610a8390612294565b8015610ad05780601f10610aa557610100808354040283529160200191610ad0565b820191906000526020600020905b815481529060010190602001808311610ab357829003601f168201915b5050505050905090565b610aeb610ae5610e63565b8261118b565b50565b60008060016000610afd610e63565b73ffffffffffffffffffffffffffffffffffffffff1673ffffffffffffffffffffffffffffffffffffffff16815260200190815260200160002060008573ffffffffffffffffffffffffffffffffffffffff1673ffffffffffffffffffffffffffffffffffffffff16815260200190815260200160002054905082811015610bba576040517f08c379a0000000000000000000000000000000000000000000000000000000008152600401610bb190611fdc565b60405180910390fd5b610bd7610bc5610e63565b858584610bd291906121d8565b610e6b565b600191505092915050565b6000610bf6610bef610e63565b8484611036565b6001905092915050565b60065481565b6000600160008473ffffffffffffffffffffffffffffffffffffffff1673ffffffffffffffffffffffffffffffffffffffff16815260200190815260200160002060008373ffffffffffffffffffffffffffffffffffffffff1673ffffffffffffffffffffffffffffffffffffffff16815260200190815260200160002054905092915050565b60075481565b600060075460065483610ca6919061217e565b610cb0919061214d565b9050919050565b610cbf610e63565b73ffffffffffffffffffffffffffffffffffffffff16610cdd610a1e565b73ffffffffffffffffffffffffffffffffffffffff1614610d33576040517f08c379a0000000000000000000000000000000000000000000000000000000008152600401610d2a90611f3c565b60405180910390fd5b600073ffffffffffffffffffffffffffffffffffffffff168173ffffffffffffffffffffffffffffffffffffffff161415610da3576040517f08c379a0000000000000000000000000000000000000000000000000000000008152600401610d9a90611edc565b60405180910390fd5b8073ffffffffffffffffffffffffffffffffffffffff16600560009054906101000a900473ffffffffffffffffffffffffffffffffffffffff1673ffffffffffffffffffffffffffffffffffffffff167f8be0079c531659141344cd1fd0a4f28419497f9722a3daafe3b4186f6b6457e060405160405180910390a380600560006101000a81548173ffffffffffffffffffffffffffffffffffffffff021916908373ffffffffffffffffffffffffffffffffffffffff16021790555050565b600033905090565b600073ffffffffffffffffffffffffffffffffffffffff168373ffffffffffffffffffffffffffffffffffffffff161415610edb576040517f08c379a0000000000000000000000000000000000000000000000000000000008152600401610ed290611f9c565b60405180910390fd5b600073ffffffffffffffffffffffffffffffffffffffff168273ffffffffffffffffffffffffffffffffffffffff161415610f4b576040517f08c379a0000000000000000000000000000000000000000000000000000000008152600401610f4290611efc565b60405180910390fd5b80600160008573ffffffffffffffffffffffffffffffffffffffff1673ffffffffffffffffffffffffffffffffffffffff16815260200190815260200160002060008473ffffffffffffffffffffffffffffffffffffffff1673ffffffffffffffffffffffffffffffffffffffff168152602001908152602001600020819055508173ffffffffffffffffffffffffffffffffffffffff168373ffffffffffffffffffffffffffffffffffffffff167f8c5be1e5ebec7d5bd14f71427d1e84f3dd0314c0f7b2291e5b200ac8c7c3b92583604051611029919061201c565b60405180910390a3505050565b600073ffffffffffffffffffffffffffffffffffffffff168373ffffffffffffffffffffffffffffffffffffffff1614156110a6576040517f08c379a000000000000000000000000000000000000000000000000000000000815260040161109d90611f7c565b60405180910390fd5b600073ffffffffffffffffffffffffffffffffffffffff168273ffffffffffffffffffffffffffffffffffffffff161415611116576040517f08c379a000000000000000000000000000000000000000000000000000000000815260040161110d90611e9c565b60405180910390fd5b611121838383611490565b8173ffffffffffffffffffffffffffffffffffffffff168373ffffffffffffffffffffffffffffffffffffffff167fddf252ad1be2c89b69c2b068fc378daa952ba7f163c4a11628f55a4df523b3ef8360405161117e919061201c565b60405180910390a3505050565b600073ffffffffffffffffffffffffffffffffffffffff168273ffffffffffffffffffffffffffffffffffffffff1614156111fb576040517f08c379a00000000000000000000000000000000000000000000000000000000081526004016111f290611ffc565b60405180910390fd5b60008160065461120b91906120f7565b9050600060065460075483611220919061217e565b61122a919061214d565b905060006007548261123c91906121d8565b9050816007819055508260068190555080600860008773ffffffffffffffffffffffffffffffffffffffff1673ffffffffffffffffffffffffffffffffffffffff168152602001908152602001600020600082825461129b91906120f7565b925050819055505050505050565b600073ffffffffffffffffffffffffffffffffffffffff168273ffffffffffffffffffffffffffffffffffffffff161415611319576040517f08c379a000000000000000000000000000000000000000000000000000000000815260040161131090611f5c565b60405180910390fd5b6000611363600860008573ffffffffffffffffffffffffffffffffffffffff1673ffffffffffffffffffffffffffffffffffffffff16815260200190815260200160002054610c93565b9050818110156113a8576040517f08c379a000000000000000000000000000000000000000000000000000000000815260040161139f90611fbc565b60405180910390fd5b6000826006546113b891906121d8565b90506000600654600754836113cd919061217e565b6113d7919061214d565b90506000816007546113e991906121d8565b9050816007819055508260068190555080600860008873ffffffffffffffffffffffffffffffffffffffff1673ffffffffffffffffffffffffffffffffffffffff168152602001908152602001600020600082825461144891906121d8565b925050819055507f696de425f79f4a40bc6d2122ca50507f0efbeabbff86a84871b7196ab8ea8df78686604051611480929190611e36565b60405180910390a1505050505050565b600061149b82610853565b90506000600860008673ffffffffffffffffffffffffffffffffffffffff1673ffffffffffffffffffffffffffffffffffffffff16815260200190815260200160002054905081811015611524576040517f08c379a000000000000000000000000000000000000000000000000000000000815260040161151b90611ebc565b60405180910390fd5b81600860008773ffffffffffffffffffffffffffffffffffffffff1673ffffffffffffffffffffffffffffffffffffffff168152602001908152602001600020600082825461157391906121d8565b9250508190555081600860008673ffffffffffffffffffffffffffffffffffffffff1673ffffffffffffffffffffffffffffffffffffffff16815260200190815260200160002060008282546115c991906120f7565b925050819055508373ffffffffffffffffffffffffffffffffffffffff168573ffffffffffffffffffffffffffffffffffffffff167fddf252ad1be2c89b69c2b068fc378daa952ba7f163c4a11628f55a4df523b3ef8560405161162d919061201c565b60405180910390a35050505050565b600061164f61164a84612083565b612052565b9050808382526020820190508285602086028201111561166e57600080fd5b60005b8581101561169e57816116848882611714565b845260208401935060208301925050600181019050611671565b5050509392505050565b60006116bb6116b6846120af565b612052565b905080838252602082019050828560208602820111156116da57600080fd5b60005b8581101561170a57816116f0888261177d565b8452602084019350602083019250506001810190506116dd565b5050509392505050565b600081359050611723816123dc565b92915050565b600082601f83011261173a57600080fd5b813561174a84826020860161163c565b91505092915050565b600082601f83011261176457600080fd5b81356117748482602086016116a8565b91505092915050565b60008135905061178c816123f3565b92915050565b6000602082840312156117a457600080fd5b60006117b284828501611714565b91505092915050565b600080604083850312156117ce57600080fd5b60006117dc85828601611714565b92505060206117ed85828601611714565b9150509250929050565b60008060006060848603121561180c57600080fd5b600061181a86828701611714565b935050602061182b86828701611714565b925050604061183c8682870161177d565b9150509250925092565b6000806040838503121561185957600080fd5b600061186785828601611714565b92505060206118788582860161177d565b9150509250929050565b60006020828403121561189457600080fd5b60006118a28482850161177d565b91505092915050565b6000806000606084860312156118c057600080fd5b60006118ce8682870161177d565b935050602084013567ffffffffffffffff8111156118eb57600080fd5b6118f786828701611729565b925050604084013567ffffffffffffffff81111561191457600080fd5b61192086828701611753565b9150509250925092565b6119338161220c565b82525050565b6119428161221e565b82525050565b6000611953826120db565b61195d81856120e6565b935061196d818560208601612261565b611976816123cb565b840191505092915050565b600061198e6023836120e6565b91507f45524332303a207472616e7366657220746f20746865207a65726f206164647260008301527f65737300000000000000000000000000000000000000000000000000000000006020830152604082019050919050565b60006119f46027836120e6565b91507f4552433737373a207472616e7366657220616d6f756e7420657863656564732060008301527f62616c616e6365000000000000000000000000000000000000000000000000006020830152604082019050919050565b6000611a5a6026836120e6565b91507f4f776e61626c653a206e6577206f776e657220697320746865207a65726f206160008301527f64647265737300000000000000000000000000000000000000000000000000006020830152604082019050919050565b6000611ac06022836120e6565b91507f45524332303a20617070726f766520746f20746865207a65726f20616464726560008301527f73730000000000000000000000000000000000000000000000000000000000006020830152604082019050919050565b6000611b266028836120e6565b91507f45524332303a207472616e7366657220616d6f756e742065786365656473206160008301527f6c6c6f77616e63650000000000000000000000000000000000000000000000006020830152604082019050919050565b6000611b8c6020836120e6565b91507f4f776e61626c653a2063616c6c6572206973206e6f7420746865206f776e65726000830152602082019050919050565b6000611bcc6021836120e6565b91507f45524332303a206275726e2066726f6d20746865207a65726f2061646472657360008301527f73000000000000000000000000000000000000000000000000000000000000006020830152604082019050919050565b6000611c326025836120e6565b91507f45524332303a207472616e736665722066726f6d20746865207a65726f20616460008301527f64726573730000000000000000000000000000000000000000000000000000006020830152604082019050919050565b6000611c986024836120e6565b91507f45524332303a20617070726f76652066726f6d20746865207a65726f2061646460008301527f72657373000000000000000000000000000000000000000000000000000000006020830152604082019050919050565b6000611cfe6023836120e6565b91507f4552433737373a206275726e20616d6f756e7420657863656564732062616c6160008301527f6e636500000000000000000000000000000000000000000000000000000000006020830152604082019050919050565b6000611d646025836120e6565b91507f45524332303a2064656372656173656420616c6c6f77616e63652062656c6f7760008301527f207a65726f0000000000000000000000000000000000000000000000000000006020830152604082019050919050565b6000611dca601f836120e6565b91507f45524332303a206d696e7420746f20746865207a65726f2061646472657373006000830152602082019050919050565b611e068161224a565b82525050565b611e1581612254565b82525050565b6000602082019050611e30600083018461192a565b92915050565b6000604082019050611e4b600083018561192a565b611e586020830184611dfd565b9392505050565b6000602082019050611e746000830184611939565b92915050565b60006020820190508181036000830152611e948184611948565b905092915050565b60006020820190508181036000830152611eb581611981565b9050919050565b60006020820190508181036000830152611ed5816119e7565b9050919050565b60006020820190508181036000830152611ef581611a4d565b9050919050565b60006020820190508181036000830152611f1581611ab3565b9050919050565b60006020820190508181036000830152611f3581611b19565b9050919050565b60006020820190508181036000830152611f5581611b7f565b9050919050565b60006020820190508181036000830152611f7581611bbf565b9050919050565b60006020820190508181036000830152611f9581611c25565b9050919050565b60006020820190508181036000830152611fb581611c8b565b9050919050565b60006020820190508181036000830152611fd581611cf1565b9050919050565b60006020820190508181036000830152611ff581611d57565b9050919050565b6000602082019050818103600083015261201581611dbd565b9050919050565b60006020820190506120316000830184611dfd565b92915050565b600060208201905061204c6000830184611e0c565b92915050565b6000604051905081810181811067ffffffffffffffff821117156120795761207861239c565b5b8060405250919050565b600067ffffffffffffffff82111561209e5761209d61239c565b5b602082029050602081019050919050565b600067ffffffffffffffff8211156120ca576120c961239c565b5b602082029050602081019050919050565b600081519050919050565b600082825260208201905092915050565b60006121028261224a565b915061210d8361224a565b9250827fffffffffffffffffffffffffffffffffffffffffffffffffffffffffffffffff038211156121425761214161230f565b5b828201905092915050565b60006121588261224a565b91506121638361224a565b9250826121735761217261233e565b5b828204905092915050565b60006121898261224a565b91506121948361224a565b9250817fffffffffffffffffffffffffffffffffffffffffffffffffffffffffffffffff04831182151516156121cd576121cc61230f565b5b828202905092915050565b60006121e38261224a565b91506121ee8361224a565b9250828210156122015761220061230f565b5b828203905092915050565b60006122178261222a565b9050919050565b60008115159050919050565b600073ffffffffffffffffffffffffffffffffffffffff82169050919050565b6000819050919050565b600060ff82169050919050565b60005b8381101561227f578082015181840152602081019050612264565b8381111561228e576000848401525b50505050565b600060028204905060018216806122ac57607f821691505b602082108114156122c0576122bf61236d565b5b50919050565b60006122d18261224a565b91507fffffffffffffffffffffffffffffffffffffffffffffffffffffffffffffffff8214156123045761230361230f565b5b600182019050919050565b7f4e487b7100000000000000000000000000000000000000000000000000000000600052601160045260246000fd5b7f4e487b7100000000000000000000000000000000000000000000000000000000600052601260045260246000fd5b7f4e487b7100000000000000000000000000000000000000000000000000000000600052602260045260246000fd5b7f4e487b7100000000000000000000000000000000000000000000000000000000600052604160045260246000fd5b6000601f19601f8301169050919050565b6123e58161220c565b81146123f057600080fd5b50565b6123fc8161224a565b811461240757600080fd5b5056fea2646970667358221220b81b164e840c1f1ed9a2eecad0b7a2d2a3256d3e8b6a0f99013634abd7998b6064736f6c63430008000033",
  "immutableReferences": {},
  "source": "// SPDX-License-Identifier: MIT\npragma solidity ^0.8.0;\n\nimport \"@openzeppelin/contracts/token/ERC20/ERC20.sol\";\nimport \"@openzeppelin/contracts/access/Ownable.sol\";\n\ncontract MeToken is ERC20(\"MeToken\", \"UME\"), Ownable{\n  \n    uint public _totalAtoms;\n    uint public _totalPoints;\n    mapping(address =>uint256) public _points;\n    constructor(){\n        _totalPoints = 10e18;\n        _totalAtoms = 10e18;\n    }\n    function atomsToPoints(uint atoms) public view returns (uint256) { // rounds up\n        return (atoms * _totalPoints + _totalAtoms - 1) / _totalAtoms;\n    }\n    function pointsToAtoms(uint points) public view returns (uint256) {// rounds down\n        return points * _totalAtoms / _totalPoints;\n    }\n    function relay(uint newTotalAtoms, address[] memory minters, uint[] memory mintAmounts) public onlyOwner {\n        _totalAtoms += newTotalAtoms;\n\n        for(uint i = 0 ; i < minters.length; i++){\n            _mint(minters[i], mintAmounts[i]);\n        }\n    }\n   function _move(\n        address from,\n        address to,\n        uint256 amount\n    )\n        private\n    {\n\n        uint256 pointAmount = atomsToPoints(amount);// rounded up so the receiver gets *at least* the amount sent\n        uint256 fromBalance = _points[from];\n        require(fromBalance >= pointAmount, \"ERC777: transfer amount exceeds balance\");\n        _points[from] -= pointAmount;\n        _points[to] += pointAmount;\n\n        emit Transfer(from, to, amount);\n    }\n\n    function totalSupply() public view virtual override returns (uint256) {\n        return _totalAtoms;\n    }\n\n    function balanceOf(address tokenHolder) public view virtual override returns (uint256) {\n        return pointsToAtoms(_points[tokenHolder]);\n    }\n\n    function _transfer(address sender, address recipient, uint256 amount) internal virtual override {\n        require(sender != address(0), \"ERC20: transfer from the zero address\");\n        require(recipient != address(0), \"ERC20: transfer to the zero address\");\n\n        _move(sender,recipient, amount);\n\n        emit Transfer(sender, recipient, amount);\n    }\n\n     /** @dev Creates `amount` tokens and assigns them to `account`, increasing\n     * the total supply.\n     * Emits a {Transfer} event with `from` set to the zero address.\n     * Requirements:\n     * - `to` cannot be the zero address.*/\n    function mint(uint256 amount) public {_mint(_msgSender(), amount);}\n    function _mint(address account, uint256 amount) internal virtual override {// unlock or \"move\" to ethereum\n        require(account != address(0), \"ERC20: mint to the zero address\");\n\n        uint newTotalAtoms = _totalAtoms + amount;\n        uint newTotalPoints = newTotalAtoms * _totalPoints / _totalAtoms;\n        uint points = newTotalPoints - _totalPoints;\n        _totalPoints = newTotalPoints;\n        _totalAtoms = newTotalAtoms;\n        _points[account] += points;\n    }\n\n    event Burned(address account, uint amount);\n    function burn(uint256 amount) public {_burn(_msgSender(), amount);}\n    function _burn(address account, uint256 amount) internal virtual override {// lock or \"move\" back to cosmos\n        require(account != address(0), \"ERC20: burn from the zero address\");\n\n        uint256 fromBalance = pointsToAtoms(_points[account]);\n        require(fromBalance >= amount, \"ERC777: burn amount exceeds balance\");\n        \n        uint newTotalAtoms = _totalAtoms - amount;\n        uint newTotalPoints = newTotalAtoms * _totalPoints / _totalAtoms;\n        uint points = _totalPoints - newTotalPoints;\n        _totalPoints = newTotalPoints;\n        _totalAtoms = newTotalAtoms;\n        _points[account] -= points;\n\n        emit Burned(account, amount);\n        // emit Burned(operator, from, amount, data, operatorData)\n        // emit Transfer(account, address(0), amount); // event to be monitored\n    }\n}\n\n\n",
  "sourcePath": "/Users/zacharymitton/Dropbox/zac_mitton/dev/ethereum/umee/umee-contracts/contracts/MeToken.sol",
  "compiler": {
    "name": "solc",
    "version": "0.8.0+commit.c7dfd78e.Emscripten.clang"
  },
  "schemaVersion": "3.3.4",
  "updatedAt": "2021-07-11T03:55:31.541Z",
  "networkType": "ethereum",
  "devdoc": {
    "kind": "dev",
    "methods": {
      "allowance(address,address)": {
        "details": "See {IERC20-allowance}."
      },
      "approve(address,uint256)": {
        "details": "See {IERC20-approve}. Requirements: - `spender` cannot be the zero address."
      },
      "decimals()": {
        "details": "Returns the number of decimals used to get its user representation. For example, if `decimals` equals `2`, a balance of `505` tokens should be displayed to a user as `5,05` (`505 / 10 ** 2`). Tokens usually opt for a value of 18, imitating the relationship between Ether and Wei. This is the value {ERC20} uses, unless this function is overridden; NOTE: This information is only used for _display_ purposes: it in no way affects any of the arithmetic of the contract, including {IERC20-balanceOf} and {IERC20-transfer}."
      },
      "decreaseAllowance(address,uint256)": {
        "details": "Atomically decreases the allowance granted to `spender` by the caller. This is an alternative to {approve} that can be used as a mitigation for problems described in {IERC20-approve}. Emits an {Approval} event indicating the updated allowance. Requirements: - `spender` cannot be the zero address. - `spender` must have allowance for the caller of at least `subtractedValue`."
      },
      "increaseAllowance(address,uint256)": {
        "details": "Atomically increases the allowance granted to `spender` by the caller. This is an alternative to {approve} that can be used as a mitigation for problems described in {IERC20-approve}. Emits an {Approval} event indicating the updated allowance. Requirements: - `spender` cannot be the zero address."
      },
      "mint(uint256)": {
        "details": "Creates `amount` tokens and assigns them to `account`, increasing the total supply. Emits a {Transfer} event with `from` set to the zero address. Requirements: - `to` cannot be the zero address."
      },
      "name()": {
        "details": "Returns the name of the token."
      },
      "owner()": {
        "details": "Returns the address of the current owner."
      },
      "renounceOwnership()": {
        "details": "Leaves the contract without owner. It will not be possible to call `onlyOwner` functions anymore. Can only be called by the current owner. NOTE: Renouncing ownership will leave the contract without an owner, thereby removing any functionality that is only available to the owner."
      },
      "symbol()": {
        "details": "Returns the symbol of the token, usually a shorter version of the name."
      },
      "totalSupply()": {
        "details": "See {IERC20-totalSupply}."
      },
      "transfer(address,uint256)": {
        "details": "See {IERC20-transfer}. Requirements: - `recipient` cannot be the zero address. - the caller must have a balance of at least `amount`."
      },
      "transferFrom(address,address,uint256)": {
        "details": "See {IERC20-transferFrom}. Emits an {Approval} event indicating the updated allowance. This is not required by the EIP. See the note at the beginning of {ERC20}. Requirements: - `sender` and `recipient` cannot be the zero address. - `sender` must have a balance of at least `amount`. - the caller must have allowance for ``sender``'s tokens of at least `amount`."
      },
      "transferOwnership(address)": {
        "details": "Transfers ownership of the contract to a new account (`newOwner`). Can only be called by the current owner."
      }
    },
    "version": 1
  },
  "userdoc": {
    "kind": "user",
    "methods": {},
    "version": 1
  }
}