{
  "contractName": "MeTokenOnCosmos",
  "abi": [
    {
      "inputs": [],
      "stateMutability": "nonpayable",
      "type": "constructor"
    },
    {
      "anonymous": false,
      "inputs": [
        {
          "indexed": false,
          "internalType": "uint256",
          "name": "amount",
          "type": "uint256"
        },
        {
          "indexed": false,
          "internalType": "address",
          "name": "cosmosAddress",
          "type": "address"
        }
      ],
      "name": "InitiateTransferToCosmos",
      "type": "event"
    },
    {
      "anonymous": false,
      "inputs": [
        {
          "indexed": true,
          "internalType": "address",
          "name": "previousOwner",
          "type": "address"
        },
        {
          "indexed": true,
          "internalType": "address",
          "name": "newOwner",
          "type": "address"
        }
      ],
      "name": "OwnershipTransferred",
      "type": "event"
    },
    {
      "inputs": [
        {
          "internalType": "address",
          "name": "",
          "type": "address"
        }
      ],
      "name": "_points",
      "outputs": [
        {
          "internalType": "uint256",
          "name": "",
          "type": "uint256"
        }
      ],
      "stateMutability": "view",
      "type": "function"
    },
    {
      "inputs": [],
      "name": "_totalAtoms",
      "outputs": [
        {
          "internalType": "uint256",
          "name": "",
          "type": "uint256"
        }
      ],
      "stateMutability": "view",
      "type": "function"
    },
    {
      "inputs": [],
      "name": "_totalPoints",
      "outputs": [
        {
          "internalType": "uint256",
          "name": "",
          "type": "uint256"
        }
      ],
      "stateMutability": "view",
      "type": "function"
    },
    {
      "inputs": [],
      "name": "owner",
      "outputs": [
        {
          "internalType": "address",
          "name": "",
          "type": "address"
        }
      ],
      "stateMutability": "view",
      "type": "function"
    },
    {
      "inputs": [],
      "name": "renounceOwnership",
      "outputs": [],
      "stateMutability": "nonpayable",
      "type": "function"
    },
    {
      "inputs": [
        {
          "internalType": "address",
          "name": "newOwner",
          "type": "address"
        }
      ],
      "name": "transferOwnership",
      "outputs": [],
      "stateMutability": "nonpayable",
      "type": "function"
    },
    {
      "inputs": [
        {
          "internalType": "uint256",
          "name": "atoms",
          "type": "uint256"
        }
      ],
      "name": "atomsToPoints",
      "outputs": [
        {
          "internalType": "uint256",
          "name": "",
          "type": "uint256"
        }
      ],
      "stateMutability": "view",
      "type": "function"
    },
    {
      "inputs": [
        {
          "internalType": "uint256",
          "name": "points",
          "type": "uint256"
        }
      ],
      "name": "pointsToAtoms",
      "outputs": [
        {
          "internalType": "uint256",
          "name": "",
          "type": "uint256"
        }
      ],
      "stateMutability": "view",
      "type": "function"
    },
    {
      "inputs": [
        {
          "internalType": "address",
          "name": "tokenHolder",
          "type": "address"
        }
      ],
      "name": "balanceOf",
      "outputs": [
        {
          "internalType": "uint256",
          "name": "",
          "type": "uint256"
        }
      ],
      "stateMutability": "view",
      "type": "function"
    },
    {
      "inputs": [
        {
          "internalType": "uint256",
          "name": "amount",
          "type": "uint256"
        },
        {
          "internalType": "address",
          "name": "ethereumAddress",
          "type": "address"
        }
      ],
      "name": "initiateTransferToEthereum",
      "outputs": [],
      "stateMutability": "nonpayable",
      "type": "function"
    }
  ],
  "bytecode": "0x608060405234801561001057600080fd5b5060006100216100e260201b60201c565b9050806000806101000a81548173ffffffffffffffffffffffffffffffffffffffff021916908373ffffffffffffffffffffffffffffffffffffffff1602179055508073ffffffffffffffffffffffffffffffffffffffff16600073ffffffffffffffffffffffffffffffffffffffff167f8be0079c531659141344cd1fd0a4f28419497f9722a3daafe3b4186f6b6457e060405160405180910390a350678ac7230489e80000600281905550678ac7230489e800006001819055506100ea565b600033905090565b610d2f806100f96000396000f3fe608060405234801561001057600080fd5b506004361061009e5760003560e01c8063d41b430f11610066578063d41b430f1461015b578063e5590d8214610179578063e614b21d14610197578063f2fde38b146101c7578063fd24a8d1146101e35761009e565b80630ec9c823146100a35780635eb873be146100d357806370a0823114610103578063715018a6146101335780638da5cb5b1461013d575b600080fd5b6100bd60048036038101906100b8919061080e565b6101ff565b6040516100ca9190610ac7565b60405180910390f35b6100ed60048036038101906100e89190610837565b610217565b6040516100fa9190610ac7565b60405180910390f35b61011d6004803603810190610118919061080e565b610253565b60405161012a9190610ac7565b60405180910390f35b61013b6102a4565b005b6101456103de565b6040516101529190610a2c565b60405180910390f35b610163610407565b6040516101709190610ac7565b60405180910390f35b61018161040d565b60405161018e9190610ac7565b60405180910390f35b6101b160048036038101906101ac9190610837565b610413565b6040516101be9190610ac7565b60405180910390f35b6101e160048036038101906101dc919061080e565b610437565b005b6101fd60048036038101906101f89190610860565b6105e0565b005b60036020528060005260406000206000915090505481565b6000600154600180546002548561022e9190610ba3565b6102389190610b1c565b6102429190610bfd565b61024c9190610b72565b9050919050565b600061029d600360008473ffffffffffffffffffffffffffffffffffffffff1673ffffffffffffffffffffffffffffffffffffffff16815260200190815260200160002054610413565b9050919050565b6102ac61062e565b73ffffffffffffffffffffffffffffffffffffffff166102ca6103de565b73ffffffffffffffffffffffffffffffffffffffff1614610320576040517f08c379a000000000000000000000000000000000000000000000000000000000815260040161031790610a67565b60405180910390fd5b600073ffffffffffffffffffffffffffffffffffffffff1660008054906101000a900473ffffffffffffffffffffffffffffffffffffffff1673ffffffffffffffffffffffffffffffffffffffff167f8be0079c531659141344cd1fd0a4f28419497f9722a3daafe3b4186f6b6457e060405160405180910390a360008060006101000a81548173ffffffffffffffffffffffffffffffffffffffff021916908373ffffffffffffffffffffffffffffffffffffffff160217905550565b60008060009054906101000a900473ffffffffffffffffffffffffffffffffffffffff16905090565b60015481565b60025481565b6000600254600154836104269190610ba3565b6104309190610b72565b9050919050565b61043f61062e565b73ffffffffffffffffffffffffffffffffffffffff1661045d6103de565b73ffffffffffffffffffffffffffffffffffffffff16146104b3576040517f08c379a00000000000000000000000000000000000000000000000000000000081526004016104aa90610a67565b60405180910390fd5b600073ffffffffffffffffffffffffffffffffffffffff168173ffffffffffffffffffffffffffffffffffffffff161415610523576040517f08c379a000000000000000000000000000000000000000000000000000000000815260040161051a90610a47565b60405180910390fd5b8073ffffffffffffffffffffffffffffffffffffffff1660008054906101000a900473ffffffffffffffffffffffffffffffffffffffff1673ffffffffffffffffffffffffffffffffffffffff167f8be0079c531659141344cd1fd0a4f28419497f9722a3daafe3b4186f6b6457e060405160405180910390a3806000806101000a81548173ffffffffffffffffffffffffffffffffffffffff021916908373ffffffffffffffffffffffffffffffffffffffff16021790555050565b6105f16105eb61062e565b83610636565b7f42a16786c60114de751c47cc1d55fca1c8e552b6f60013250dc4b7a51b273fed8282604051610622929190610ae2565b60405180910390a15050565b600033905090565b600073ffffffffffffffffffffffffffffffffffffffff168273ffffffffffffffffffffffffffffffffffffffff1614156106a6576040517f08c379a000000000000000000000000000000000000000000000000000000000815260040161069d90610a87565b60405180910390fd5b60006106f0600360008573ffffffffffffffffffffffffffffffffffffffff1673ffffffffffffffffffffffffffffffffffffffff16815260200190815260200160002054610413565b905081811015610735576040517f08c379a000000000000000000000000000000000000000000000000000000000815260040161072c90610aa7565b60405180910390fd5b6000826001546107459190610bfd565b905060006001546002548361075a9190610ba3565b6107649190610b72565b90506000816002546107769190610bfd565b9050816002819055508260018190555080600360008873ffffffffffffffffffffffffffffffffffffffff1673ffffffffffffffffffffffffffffffffffffffff16815260200190815260200160002060008282546107d59190610bfd565b92505081905550505050505050565b6000813590506107f381610ccb565b92915050565b60008135905061080881610ce2565b92915050565b60006020828403121561082057600080fd5b600061082e848285016107e4565b91505092915050565b60006020828403121561084957600080fd5b6000610857848285016107f9565b91505092915050565b6000806040838503121561087357600080fd5b6000610881858286016107f9565b9250506020610892858286016107e4565b9150509250929050565b6108a581610c31565b82525050565b60006108b8602683610b0b565b91507f4f776e61626c653a206e6577206f776e657220697320746865207a65726f206160008301527f64647265737300000000000000000000000000000000000000000000000000006020830152604082019050919050565b600061091e602083610b0b565b91507f4f776e61626c653a2063616c6c6572206973206e6f7420746865206f776e65726000830152602082019050919050565b600061095e602183610b0b565b91507f45524332303a206275726e2066726f6d20746865207a65726f2061646472657360008301527f73000000000000000000000000000000000000000000000000000000000000006020830152604082019050919050565b60006109c4602383610b0b565b91507f4552433737373a206275726e20616d6f756e7420657863656564732062616c6160008301527f6e636500000000000000000000000000000000000000000000000000000000006020830152604082019050919050565b610a2681610c63565b82525050565b6000602082019050610a41600083018461089c565b92915050565b60006020820190508181036000830152610a60816108ab565b9050919050565b60006020820190508181036000830152610a8081610911565b9050919050565b60006020820190508181036000830152610aa081610951565b9050919050565b60006020820190508181036000830152610ac0816109b7565b9050919050565b6000602082019050610adc6000830184610a1d565b92915050565b6000604082019050610af76000830185610a1d565b610b04602083018461089c565b9392505050565b600082825260208201905092915050565b6000610b2782610c63565b9150610b3283610c63565b9250827fffffffffffffffffffffffffffffffffffffffffffffffffffffffffffffffff03821115610b6757610b66610c6d565b5b828201905092915050565b6000610b7d82610c63565b9150610b8883610c63565b925082610b9857610b97610c9c565b5b828204905092915050565b6000610bae82610c63565b9150610bb983610c63565b9250817fffffffffffffffffffffffffffffffffffffffffffffffffffffffffffffffff0483118215151615610bf257610bf1610c6d565b5b828202905092915050565b6000610c0882610c63565b9150610c1383610c63565b925082821015610c2657610c25610c6d565b5b828203905092915050565b6000610c3c82610c43565b9050919050565b600073ffffffffffffffffffffffffffffffffffffffff82169050919050565b6000819050919050565b7f4e487b7100000000000000000000000000000000000000000000000000000000600052601160045260246000fd5b7f4e487b7100000000000000000000000000000000000000000000000000000000600052601260045260246000fd5b610cd481610c31565b8114610cdf57600080fd5b50565b610ceb81610c63565b8114610cf657600080fd5b5056fea2646970667358221220f495959d4901abc68721bf2519010f150ed5016b912e81cbc1e1f06fddf7476764736f6c63430008000033",
  "immutableReferences": {},
  "source": "// SPDX-License-Identifier: MIT\npragma solidity ^0.8.0;\n\n// import \"@openzeppelin/contracts/token/ERC20/ERC20.sol\";\nimport \"@openzeppelin/contracts/access/Ownable.sol\";\n\n\ncontract MeTokenOnCosmos is Ownable { /* MeToken living on Cosmos*/\n  \n    uint public _totalAtoms;\n    uint public _totalPoints;\n    mapping(address =>uint256) public _points;\n    constructor(){\n        _totalPoints = 10e18;\n        _totalAtoms = 10e18;\n    }\n    function atomsToPoints(uint atoms) public view returns (uint256) { // rounds up\n        return (atoms * _totalPoints + _totalAtoms - 1) / _totalAtoms;\n    }\n    function pointsToAtoms(uint points) public view returns (uint256) {// rounds down\n        return points * _totalAtoms / _totalPoints;\n    }\n\n    function balanceOf(address tokenHolder) public view virtual returns (uint256) {\n        return pointsToAtoms(_points[tokenHolder]);\n    }\n\n\n    // // Initiated by our bridge servers at a regular time interval. access controlled\n    // // Users first have to run `initiateTransferToEthereum()` from cosmos\n    // function unlockOnEthereum(uint newTotalAtoms, address[] memory minters, uint[] memory mintAmounts) public onlyOwner {\n    //     _totalAtoms += newTotalAtoms;\n\n    //     for(uint i = 0 ; i < minters.length; i++){\n    //         _mint(minters[i], mintAmounts[i]);\n    //     }\n    //     emit UnlockOnEthereum(keccak256(abi.encode(newTotalAtoms, minters, mintAmounts)));\n    // }\n    // event UnlockOnEthereum(bytes32 digest);\n    // function _mint(address account, uint256 amount) internal virtual override {\n    //     require(account != address(0), \"ERC20: mint to the zero address\");\n\n    //     uint newTotalAtoms = _totalAtoms + amount;\n    //     uint newTotalPoints = newTotalAtoms * _totalPoints / _totalAtoms;\n    //     uint points = newTotalPoints - _totalPoints;\n    //     _totalPoints = newTotalPoints;\n    //     _totalAtoms = newTotalAtoms;\n    //     _points[account] += points;\n    // }\n\n    // Initiated by individual users at any time.\n    // After a waiting period, `unlockOnCosmos()` will be initiated by umee bridge servers.\n    function initiateTransferToEthereum(uint256 amount, address ethereumAddress) public { // user initiates\n        _burn(_msgSender(), amount);\n        emit InitiateTransferToCosmos(amount, ethereumAddress);\n    }\n    event InitiateTransferToCosmos(uint amount, address cosmosAddress);\n    // note: may be non-standard `_burn` because it changes `totalSupply`\n    function _burn(address account, uint256 amount) internal virtual {\n        require(account != address(0), \"ERC20: burn from the zero address\");\n\n        uint256 fromBalance = pointsToAtoms(_points[account]);\n        require(fromBalance >= amount, \"ERC777: burn amount exceeds balance\");\n        \n        uint newTotalAtoms = _totalAtoms - amount;\n        uint newTotalPoints = newTotalAtoms * _totalPoints / _totalAtoms;\n        uint points = _totalPoints - newTotalPoints;\n        _totalPoints = newTotalPoints;\n        _totalAtoms = newTotalAtoms;\n        _points[account] -= points;\n    }\n\n}\n\n\n",
  "sourcePath": "/Users/zacharymitton/Dropbox/zac_mitton/dev/ethereum/umee/umee-contracts/contracts/CosmosStub.sol",
  "compiler": {
    "name": "solc",
    "version": "0.8.0+commit.c7dfd78e.Emscripten.clang"
  },
  "schemaVersion": "3.3.4",
  "updatedAt": "2021-07-11T19:20:18.124Z",
  "devdoc": {
    "kind": "dev",
    "methods": {
      "owner()": {
        "details": "Returns the address of the current owner."
      },
      "renounceOwnership()": {
        "details": "Leaves the contract without owner. It will not be possible to call `onlyOwner` functions anymore. Can only be called by the current owner. NOTE: Renouncing ownership will leave the contract without an owner, thereby removing any functionality that is only available to the owner."
      },
      "transferOwnership(address)": {
        "details": "Transfers ownership of the contract to a new account (`newOwner`). Can only be called by the current owner."
      }
    },
    "version": 1
  },
  "userdoc": {
    "kind": "user",
    "methods": {},
    "version": 1
  }
}