{
  "contractName": "MeTokenOnCosmosStub",
  "abi": [
    {
      "anonymous": false,
      "inputs": [
        {
          "indexed": false,
          "internalType": "uint256",
          "name": "amount",
          "type": "uint256"
        },
        {
          "indexed": false,
          "internalType": "address",
          "name": "ethereumAddress",
          "type": "address"
        }
      ],
      "name": "InitiateTransferToEthereum",
      "type": "event"
    },
    {
      "anonymous": false,
      "inputs": [
        {
          "indexed": true,
          "internalType": "address",
          "name": "previousOwner",
          "type": "address"
        },
        {
          "indexed": true,
          "internalType": "address",
          "name": "newOwner",
          "type": "address"
        }
      ],
      "name": "OwnershipTransferred",
      "type": "event"
    },
    {
      "anonymous": false,
      "inputs": [
        {
          "indexed": false,
          "internalType": "bytes32",
          "name": "digest",
          "type": "bytes32"
        }
      ],
      "name": "UnlockOnCosmos",
      "type": "event"
    },
    {
      "inputs": [],
      "name": "atomContract",
      "outputs": [
        {
          "internalType": "contract IERC20",
          "name": "",
          "type": "address"
        }
      ],
      "stateMutability": "view",
      "type": "function",
      "constant": true
    },
    {
      "inputs": [],
      "name": "owner",
      "outputs": [
        {
          "internalType": "address",
          "name": "",
          "type": "address"
        }
      ],
      "stateMutability": "view",
      "type": "function",
      "constant": true
    },
    {
      "inputs": [],
      "name": "renounceOwnership",
      "outputs": [],
      "stateMutability": "nonpayable",
      "type": "function"
    },
    {
      "inputs": [
        {
          "internalType": "address",
          "name": "newOwner",
          "type": "address"
        }
      ],
      "name": "transferOwnership",
      "outputs": [],
      "stateMutability": "nonpayable",
      "type": "function"
    },
    {
      "inputs": [
        {
          "internalType": "address",
          "name": "_atomContract",
          "type": "address"
        }
      ],
      "name": "setAtomAddress",
      "outputs": [],
      "stateMutability": "nonpayable",
      "type": "function"
    },
    {
      "inputs": [
        {
          "internalType": "address[]",
          "name": "minters",
          "type": "address[]"
        },
        {
          "internalType": "uint256[]",
          "name": "mintAmounts",
          "type": "uint256[]"
        }
      ],
      "name": "unlockOnCosmos",
      "outputs": [],
      "stateMutability": "nonpayable",
      "type": "function"
    },
    {
      "inputs": [
        {
          "internalType": "uint256",
          "name": "amount",
          "type": "uint256"
        },
        {
          "internalType": "address",
          "name": "ethereumAddress",
          "type": "address"
        }
      ],
      "name": "initiateTransferToEthereum",
      "outputs": [],
      "stateMutability": "nonpayable",
      "type": "function"
    }
  ],
  "bytecode": "0x608060405234801561001057600080fd5b5060006100216100c460201b60201c565b9050806000806101000a81548173ffffffffffffffffffffffffffffffffffffffff021916908373ffffffffffffffffffffffffffffffffffffffff1602179055508073ffffffffffffffffffffffffffffffffffffffff16600073ffffffffffffffffffffffffffffffffffffffff167f8be0079c531659141344cd1fd0a4f28419497f9722a3daafe3b4186f6b6457e060405160405180910390a3506100cc565b600033905090565b6110fd806100db6000396000f3fe608060405234801561001057600080fd5b506004361061007d5760003560e01c8063715018a61161005b578063715018a6146100d85780638da5cb5b146100e2578063f2fde38b14610100578063fd24a8d11461011c5761007d565b80630ebe1bd7146100825780633a9aeed5146100a057806351c0fd03146100bc575b600080fd5b61008a610138565b6040516100979190610db5565b60405180910390f35b6100ba60048036038101906100b591906109fc565b61015e565b005b6100d660048036038101906100d191906109d3565b61038d565b005b6100e061044d565b005b6100ea610587565b6040516100f79190610d1f565b60405180910390f35b61011a600480360381019061011591906109d3565b6105b0565b005b61013660048036038101906101319190610a91565b610759565b005b600160009054906101000a900473ffffffffffffffffffffffffffffffffffffffff1681565b610166610860565b73ffffffffffffffffffffffffffffffffffffffff16610184610587565b73ffffffffffffffffffffffffffffffffffffffff16146101da576040517f08c379a00000000000000000000000000000000000000000000000000000000081526004016101d190610e10565b60405180910390fd5b60005b825181101561032957600160009054906101000a900473ffffffffffffffffffffffffffffffffffffffff1673ffffffffffffffffffffffffffffffffffffffff1663a9059cbb84838151811061025d577f4e487b7100000000000000000000000000000000000000000000000000000000600052603260045260246000fd5b602002602001015184848151811061029e577f4e487b7100000000000000000000000000000000000000000000000000000000600052603260045260246000fd5b60200260200101516040518363ffffffff1660e01b81526004016102c3929190610d3a565b602060405180830381600087803b1580156102dd57600080fd5b505af11580156102f1573d6000803e3d6000fd5b505050506040513d601f19601f820116820180604052508101906103159190610a68565b50808061032190610fdb565b9150506101dd565b507f88fb8bafa3f5796a318279d5093a521cdad60b02393fe7ecfdde2ad4a0b1afa0828260405160200161035e929190610d63565b604051602081830303815290604052805190602001206040516103819190610d9a565b60405180910390a15050565b610395610860565b73ffffffffffffffffffffffffffffffffffffffff166103b3610587565b73ffffffffffffffffffffffffffffffffffffffff1614610409576040517f08c379a000000000000000000000000000000000000000000000000000000000815260040161040090610e10565b60405180910390fd5b80600160006101000a81548173ffffffffffffffffffffffffffffffffffffffff021916908373ffffffffffffffffffffffffffffffffffffffff16021790555050565b610455610860565b73ffffffffffffffffffffffffffffffffffffffff16610473610587565b73ffffffffffffffffffffffffffffffffffffffff16146104c9576040517f08c379a00000000000000000000000000000000000000000000000000000000081526004016104c090610e10565b60405180910390fd5b600073ffffffffffffffffffffffffffffffffffffffff1660008054906101000a900473ffffffffffffffffffffffffffffffffffffffff1673ffffffffffffffffffffffffffffffffffffffff167f8be0079c531659141344cd1fd0a4f28419497f9722a3daafe3b4186f6b6457e060405160405180910390a360008060006101000a81548173ffffffffffffffffffffffffffffffffffffffff021916908373ffffffffffffffffffffffffffffffffffffffff160217905550565b60008060009054906101000a900473ffffffffffffffffffffffffffffffffffffffff16905090565b6105b8610860565b73ffffffffffffffffffffffffffffffffffffffff166105d6610587565b73ffffffffffffffffffffffffffffffffffffffff161461062c576040517f08c379a000000000000000000000000000000000000000000000000000000000815260040161062390610e10565b60405180910390fd5b600073ffffffffffffffffffffffffffffffffffffffff168173ffffffffffffffffffffffffffffffffffffffff16141561069c576040517f08c379a000000000000000000000000000000000000000000000000000000000815260040161069390610df0565b60405180910390fd5b8073ffffffffffffffffffffffffffffffffffffffff1660008054906101000a900473ffffffffffffffffffffffffffffffffffffffff1673ffffffffffffffffffffffffffffffffffffffff167f8be0079c531659141344cd1fd0a4f28419497f9722a3daafe3b4186f6b6457e060405160405180910390a3806000806101000a81548173ffffffffffffffffffffffffffffffffffffffff021916908373ffffffffffffffffffffffffffffffffffffffff16021790555050565b600160009054906101000a900473ffffffffffffffffffffffffffffffffffffffff1673ffffffffffffffffffffffffffffffffffffffff163373ffffffffffffffffffffffffffffffffffffffff16146107b357600080fd5b600073ffffffffffffffffffffffffffffffffffffffff168173ffffffffffffffffffffffffffffffffffffffff161415610823576040517f08c379a000000000000000000000000000000000000000000000000000000000815260040161081a90610dd0565b60405180910390fd5b7fce69391e379c11f7217bb0bf757a30d56f63991e7f61f948d9643e14d0afe8168282604051610854929190610e30565b60405180910390a15050565b600033905090565b600061087b61087684610e8a565b610e59565b9050808382526020820190508285602086028201111561089a57600080fd5b60005b858110156108ca57816108b08882610940565b84526020840193506020830192505060018101905061089d565b5050509392505050565b60006108e76108e284610eb6565b610e59565b9050808382526020820190508285602086028201111561090657600080fd5b60005b85811015610936578161091c88826109be565b845260208401935060208301925050600181019050610909565b5050509392505050565b60008135905061094f81611082565b92915050565b600082601f83011261096657600080fd5b8135610976848260208601610868565b91505092915050565b600082601f83011261099057600080fd5b81356109a08482602086016108d4565b91505092915050565b6000815190506109b881611099565b92915050565b6000813590506109cd816110b0565b92915050565b6000602082840312156109e557600080fd5b60006109f384828501610940565b91505092915050565b60008060408385031215610a0f57600080fd5b600083013567ffffffffffffffff811115610a2957600080fd5b610a3585828601610955565b925050602083013567ffffffffffffffff811115610a5257600080fd5b610a5e8582860161097f565b9150509250929050565b600060208284031215610a7a57600080fd5b6000610a88848285016109a9565b91505092915050565b60008060408385031215610aa457600080fd5b6000610ab2858286016109be565b9250506020610ac385828601610940565b9150509250929050565b6000610ad98383610afd565b60208301905092915050565b6000610af18383610d01565b60208301905092915050565b610b0681610f65565b82525050565b610b1581610f65565b82525050565b6000610b2682610f02565b610b308185610f32565b9350610b3b83610ee2565b8060005b83811015610b6c578151610b538882610acd565b9750610b5e83610f18565b925050600181019050610b3f565b5085935050505092915050565b6000610b8482610f0d565b610b8e8185610f43565b9350610b9983610ef2565b8060005b83811015610bca578151610bb18882610ae5565b9750610bbc83610f25565b925050600181019050610b9d565b5085935050505092915050565b610be081610f83565b82525050565b610bef81610fb7565b82525050565b6000610c02602483610f54565b91507f43616e206e6f742073656e6420746f2030783020657468657265756d2061646460008301527f72657373000000000000000000000000000000000000000000000000000000006020830152604082019050919050565b6000610c68602683610f54565b91507f4f776e61626c653a206e6577206f776e657220697320746865207a65726f206160008301527f64647265737300000000000000000000000000000000000000000000000000006020830152604082019050919050565b6000610cce602083610f54565b91507f4f776e61626c653a2063616c6c6572206973206e6f7420746865206f776e65726000830152602082019050919050565b610d0a81610fad565b82525050565b610d1981610fad565b82525050565b6000602082019050610d346000830184610b0c565b92915050565b6000604082019050610d4f6000830185610b0c565b610d5c6020830184610d10565b9392505050565b60006040820190508181036000830152610d7d8185610b1b565b90508181036020830152610d918184610b79565b90509392505050565b6000602082019050610daf6000830184610bd7565b92915050565b6000602082019050610dca6000830184610be6565b92915050565b60006020820190508181036000830152610de981610bf5565b9050919050565b60006020820190508181036000830152610e0981610c5b565b9050919050565b60006020820190508181036000830152610e2981610cc1565b9050919050565b6000604082019050610e456000830185610d10565b610e526020830184610b0c565b9392505050565b6000604051905081810181811067ffffffffffffffff82111715610e8057610e7f611053565b5b8060405250919050565b600067ffffffffffffffff821115610ea557610ea4611053565b5b602082029050602081019050919050565b600067ffffffffffffffff821115610ed157610ed0611053565b5b602082029050602081019050919050565b6000819050602082019050919050565b6000819050602082019050919050565b600081519050919050565b600081519050919050565b6000602082019050919050565b6000602082019050919050565b600082825260208201905092915050565b600082825260208201905092915050565b600082825260208201905092915050565b6000610f7082610f8d565b9050919050565b60008115159050919050565b6000819050919050565b600073ffffffffffffffffffffffffffffffffffffffff82169050919050565b6000819050919050565b6000610fc282610fc9565b9050919050565b6000610fd482610f8d565b9050919050565b6000610fe682610fad565b91507fffffffffffffffffffffffffffffffffffffffffffffffffffffffffffffffff82141561101957611018611024565b5b600182019050919050565b7f4e487b7100000000000000000000000000000000000000000000000000000000600052601160045260246000fd5b7f4e487b7100000000000000000000000000000000000000000000000000000000600052604160045260246000fd5b61108b81610f65565b811461109657600080fd5b50565b6110a281610f77565b81146110ad57600080fd5b50565b6110b981610fad565b81146110c457600080fd5b5056fea2646970667358221220992211af7177470ffe0bb9b4f400eeec314f85a3c5932332c395db770cb3c4e564736f6c63430008000033",
  "immutableReferences": {},
  "source": "// SPDX-License-Identifier: MIT\npragma solidity ^0.8.0;\n\nimport \"@openzeppelin/contracts/token/ERC20/IERC20.sol\";\nimport \"@openzeppelin/contracts/access/Ownable.sol\";\n\n\ncontract MeTokenOnCosmosStub is Ownable { /* MeToken living on Cosmos*/\n    IERC20 public atomContract;\n\n    function setAtomAddress(address _atomContract) public onlyOwner{\n        atomContract = IERC20(_atomContract);\n    }\n\n    // Initiated by our bridge servers at a regular time interval. access controlled\n    // Users first have to run `initiateTransferToCosmos()` from ethereum\n    function unlockOnCosmos(address[] memory minters, uint[] memory mintAmounts) public onlyOwner {\n        for(uint i = 0 ; i < minters.length; i++){\n            atomContract.transfer(address(minters[i]), mintAmounts[i]);\n        }\n        emit UnlockOnCosmos(keccak256(abi.encode(minters, mintAmounts)));\n    }\n    event UnlockOnCosmos(bytes32 digest);\n\n    // Initiated by individual users at any time on cosmos.\n    // After a waiting period, `unlockOnEthereum()` will be initiated by umee bridge servers.\n    function initiateTransferToEthereum(uint256 amount, address ethereumAddress) public { // user initiates\n        require(msg.sender == address(atomContract));\n        require(ethereumAddress != address(0), \"Can not send to 0x0 ethereum address\");\n        // atomsToStake += amount;\n        emit InitiateTransferToEthereum(amount, ethereumAddress);\n    }\n    event InitiateTransferToEthereum(uint amount, address ethereumAddress);\n}\n\n\n",
  "sourcePath": "/Users/zacharymitton/Dropbox/zac_mitton/dev/ethereum/umee/umee-contracts/contracts/MeTokenOnCosmosStub.sol",
  "compiler": {
    "name": "solc",
    "version": "0.8.0+commit.c7dfd78e.Emscripten.clang"
  },
  "schemaVersion": "3.3.4",
  "updatedAt": "2021-07-11T23:14:22.642Z",
  "networkType": "ethereum",
  "devdoc": {
    "kind": "dev",
    "methods": {
      "owner()": {
        "details": "Returns the address of the current owner."
      },
      "renounceOwnership()": {
        "details": "Leaves the contract without owner. It will not be possible to call `onlyOwner` functions anymore. Can only be called by the current owner. NOTE: Renouncing ownership will leave the contract without an owner, thereby removing any functionality that is only available to the owner."
      },
      "transferOwnership(address)": {
        "details": "Transfers ownership of the contract to a new account (`newOwner`). Can only be called by the current owner."
      }
    },
    "version": 1
  },
  "userdoc": {
    "kind": "user",
    "methods": {},
    "version": 1
  }
}