{
  "contractName": "MeToken",
  "abi": [
    {
      "inputs": [],
      "stateMutability": "nonpayable",
      "type": "constructor"
    },
    {
      "anonymous": false,
      "inputs": [
        {
          "indexed": true,
          "internalType": "address",
          "name": "owner",
          "type": "address"
        },
        {
          "indexed": true,
          "internalType": "address",
          "name": "spender",
          "type": "address"
        },
        {
          "indexed": false,
          "internalType": "uint256",
          "name": "value",
          "type": "uint256"
        }
      ],
      "name": "Approval",
      "type": "event"
    },
    {
      "anonymous": false,
      "inputs": [
        {
          "indexed": false,
          "internalType": "uint256",
          "name": "amount",
          "type": "uint256"
        },
        {
          "indexed": false,
          "internalType": "bytes",
          "name": "cosmosAddress",
          "type": "bytes"
        }
      ],
      "name": "InitiateTransferToCosmos",
      "type": "event"
    },
    {
      "anonymous": false,
      "inputs": [
        {
          "indexed": true,
          "internalType": "address",
          "name": "previousOwner",
          "type": "address"
        },
        {
          "indexed": true,
          "internalType": "address",
          "name": "newOwner",
          "type": "address"
        }
      ],
      "name": "OwnershipTransferred",
      "type": "event"
    },
    {
      "anonymous": false,
      "inputs": [
        {
          "indexed": true,
          "internalType": "address",
          "name": "from",
          "type": "address"
        },
        {
          "indexed": true,
          "internalType": "address",
          "name": "to",
          "type": "address"
        },
        {
          "indexed": false,
          "internalType": "uint256",
          "name": "value",
          "type": "uint256"
        }
      ],
      "name": "Transfer",
      "type": "event"
    },
    {
      "anonymous": false,
      "inputs": [
        {
          "indexed": false,
          "internalType": "bytes32",
          "name": "digest",
          "type": "bytes32"
        }
      ],
      "name": "UnlockOnEthereum",
      "type": "event"
    },
    {
      "inputs": [
        {
          "internalType": "address",
          "name": "",
          "type": "address"
        }
      ],
      "name": "_points",
      "outputs": [
        {
          "internalType": "uint256",
          "name": "",
          "type": "uint256"
        }
      ],
      "stateMutability": "view",
      "type": "function",
      "constant": true
    },
    {
      "inputs": [],
      "name": "_totalAtoms",
      "outputs": [
        {
          "internalType": "uint256",
          "name": "",
          "type": "uint256"
        }
      ],
      "stateMutability": "view",
      "type": "function",
      "constant": true
    },
    {
      "inputs": [],
      "name": "_totalPoints",
      "outputs": [
        {
          "internalType": "uint256",
          "name": "",
          "type": "uint256"
        }
      ],
      "stateMutability": "view",
      "type": "function",
      "constant": true
    },
    {
      "inputs": [
        {
          "internalType": "address",
          "name": "owner",
          "type": "address"
        },
        {
          "internalType": "address",
          "name": "spender",
          "type": "address"
        }
      ],
      "name": "allowance",
      "outputs": [
        {
          "internalType": "uint256",
          "name": "",
          "type": "uint256"
        }
      ],
      "stateMutability": "view",
      "type": "function",
      "constant": true
    },
    {
      "inputs": [
        {
          "internalType": "address",
          "name": "spender",
          "type": "address"
        },
        {
          "internalType": "uint256",
          "name": "amount",
          "type": "uint256"
        }
      ],
      "name": "approve",
      "outputs": [
        {
          "internalType": "bool",
          "name": "",
          "type": "bool"
        }
      ],
      "stateMutability": "nonpayable",
      "type": "function"
    },
    {
      "inputs": [],
      "name": "decimals",
      "outputs": [
        {
          "internalType": "uint8",
          "name": "",
          "type": "uint8"
        }
      ],
      "stateMutability": "view",
      "type": "function",
      "constant": true
    },
    {
      "inputs": [
        {
          "internalType": "address",
          "name": "spender",
          "type": "address"
        },
        {
          "internalType": "uint256",
          "name": "subtractedValue",
          "type": "uint256"
        }
      ],
      "name": "decreaseAllowance",
      "outputs": [
        {
          "internalType": "bool",
          "name": "",
          "type": "bool"
        }
      ],
      "stateMutability": "nonpayable",
      "type": "function"
    },
    {
      "inputs": [
        {
          "internalType": "address",
          "name": "spender",
          "type": "address"
        },
        {
          "internalType": "uint256",
          "name": "addedValue",
          "type": "uint256"
        }
      ],
      "name": "increaseAllowance",
      "outputs": [
        {
          "internalType": "bool",
          "name": "",
          "type": "bool"
        }
      ],
      "stateMutability": "nonpayable",
      "type": "function"
    },
    {
      "inputs": [],
      "name": "name",
      "outputs": [
        {
          "internalType": "string",
          "name": "",
          "type": "string"
        }
      ],
      "stateMutability": "view",
      "type": "function",
      "constant": true
    },
    {
      "inputs": [],
      "name": "owner",
      "outputs": [
        {
          "internalType": "address",
          "name": "",
          "type": "address"
        }
      ],
      "stateMutability": "view",
      "type": "function",
      "constant": true
    },
    {
      "inputs": [],
      "name": "renounceOwnership",
      "outputs": [],
      "stateMutability": "nonpayable",
      "type": "function"
    },
    {
      "inputs": [],
      "name": "symbol",
      "outputs": [
        {
          "internalType": "string",
          "name": "",
          "type": "string"
        }
      ],
      "stateMutability": "view",
      "type": "function",
      "constant": true
    },
    {
      "inputs": [
        {
          "internalType": "address",
          "name": "recipient",
          "type": "address"
        },
        {
          "internalType": "uint256",
          "name": "amount",
          "type": "uint256"
        }
      ],
      "name": "transfer",
      "outputs": [
        {
          "internalType": "bool",
          "name": "",
          "type": "bool"
        }
      ],
      "stateMutability": "nonpayable",
      "type": "function"
    },
    {
      "inputs": [
        {
          "internalType": "address",
          "name": "sender",
          "type": "address"
        },
        {
          "internalType": "address",
          "name": "recipient",
          "type": "address"
        },
        {
          "internalType": "uint256",
          "name": "amount",
          "type": "uint256"
        }
      ],
      "name": "transferFrom",
      "outputs": [
        {
          "internalType": "bool",
          "name": "",
          "type": "bool"
        }
      ],
      "stateMutability": "nonpayable",
      "type": "function"
    },
    {
      "inputs": [
        {
          "internalType": "address",
          "name": "newOwner",
          "type": "address"
        }
      ],
      "name": "transferOwnership",
      "outputs": [],
      "stateMutability": "nonpayable",
      "type": "function"
    },
    {
      "inputs": [
        {
          "internalType": "uint256",
          "name": "atoms",
          "type": "uint256"
        }
      ],
      "name": "atomsToPoints",
      "outputs": [
        {
          "internalType": "uint256",
          "name": "",
          "type": "uint256"
        }
      ],
      "stateMutability": "view",
      "type": "function",
      "constant": true
    },
    {
      "inputs": [
        {
          "internalType": "uint256",
          "name": "points",
          "type": "uint256"
        }
      ],
      "name": "pointsToAtoms",
      "outputs": [
        {
          "internalType": "uint256",
          "name": "",
          "type": "uint256"
        }
      ],
      "stateMutability": "view",
      "type": "function",
      "constant": true
    },
    {
      "inputs": [],
      "name": "totalSupply",
      "outputs": [
        {
          "internalType": "uint256",
          "name": "",
          "type": "uint256"
        }
      ],
      "stateMutability": "view",
      "type": "function",
      "constant": true
    },
    {
      "inputs": [
        {
          "internalType": "address",
          "name": "tokenHolder",
          "type": "address"
        }
      ],
      "name": "balanceOf",
      "outputs": [
        {
          "internalType": "uint256",
          "name": "",
          "type": "uint256"
        }
      ],
      "stateMutability": "view",
      "type": "function",
      "constant": true
    },
    {
      "inputs": [
        {
          "internalType": "uint256",
          "name": "newTotalAtoms",
          "type": "uint256"
        },
        {
          "internalType": "address[]",
          "name": "minters",
          "type": "address[]"
        },
        {
          "internalType": "uint256[]",
          "name": "mintAmounts",
          "type": "uint256[]"
        }
      ],
      "name": "unlockOnEthereum",
      "outputs": [],
      "stateMutability": "nonpayable",
      "type": "function"
    },
    {
      "inputs": [
        {
          "internalType": "uint256",
          "name": "amount",
          "type": "uint256"
        },
        {
          "internalType": "bytes",
          "name": "cosmosAddress",
          "type": "bytes"
        }
      ],
      "name": "initiateTransferToCosmos",
      "outputs": [],
      "stateMutability": "nonpayable",
      "type": "function"
    }
  ],
  "bytecode": "0x60806040523480156200001157600080fd5b506040518060400160405280600781526020017f4d65546f6b656e000000000000000000000000000000000000000000000000008152506040518060400160405280600381526020017f554d4500000000000000000000000000000000000000000000000000000000008152508160039080519060200190620000969291906200018f565b508060049080519060200190620000af9291906200018f565b5050506000620000c46200018760201b60201c565b905080600560006101000a81548173ffffffffffffffffffffffffffffffffffffffff021916908373ffffffffffffffffffffffffffffffffffffffff1602179055508073ffffffffffffffffffffffffffffffffffffffff16600073ffffffffffffffffffffffffffffffffffffffff167f8be0079c531659141344cd1fd0a4f28419497f9722a3daafe3b4186f6b6457e060405160405180910390a350678ac7230489e80000600781905550678ac7230489e80000600681905550620002a4565b600033905090565b8280546200019d906200023f565b90600052602060002090601f016020900481019282620001c157600085556200020d565b82601f10620001dc57805160ff19168380011785556200020d565b828001600101855582156200020d579182015b828111156200020c578251825591602001919060010190620001ef565b5b5090506200021c919062000220565b5090565b5b808211156200023b57600081600090555060010162000221565b5090565b600060028204905060018216806200025857607f821691505b602082108114156200026f576200026e62000275565b5b50919050565b7f4e487b7100000000000000000000000000000000000000000000000000000000600052602260045260246000fd5b6127b380620002b46000396000f3fe608060405234801561001057600080fd5b50600436106101375760003560e01c806370a08231116100b8578063a9059cbb1161007c578063a9059cbb14610364578063d41b430f14610394578063dd62ed3e146103b2578063e5590d82146103e2578063e614b21d14610400578063f2fde38b1461043057610137565b806370a08231146102be578063715018a6146102ee5780638da5cb5b146102f857806395d89b4114610316578063a457c2d71461033457610137565b8063313ce567116100ff578063313ce5671461020857806339509351146102265780635addc047146102565780635b0fbed2146102725780635eb873be1461028e57610137565b806306fdde031461013c578063095ea7b31461015a5780630ec9c8231461018a57806318160ddd146101ba57806323b872dd146101d8575b600080fd5b61014461044c565b60405161015191906120a1565b60405180910390f35b610174600480360381019061016f91906118d5565b6104de565b604051610181919061206b565b60405180910390f35b6101a4600480360381019061019f9190611821565b6104fc565b6040516101b19190612243565b60405180910390f35b6101c2610514565b6040516101cf9190612243565b60405180910390f35b6101f260048036038101906101ed9190611886565b61051e565b6040516101ff919061206b565b60405180910390f35b61021061061f565b60405161021d91906122d3565b60405180910390f35b610240600480360381019061023b91906118d5565b610628565b60405161024d919061206b565b60405180910390f35b610270600480360381019061026b91906119b9565b6106d4565b005b61028c6004803603810190610287919061193a565b610722565b005b6102a860048036038101906102a39190611911565b6108c7565b6040516102b59190612243565b60405180910390f35b6102d860048036038101906102d39190611821565b610904565b6040516102e59190612243565b60405180910390f35b6102f6610955565b005b610300610a92565b60405161030d9190612050565b60405180910390f35b61031e610abc565b60405161032b91906120a1565b60405180910390f35b61034e600480360381019061034991906118d5565b610b4e565b60405161035b919061206b565b60405180910390f35b61037e600480360381019061037991906118d5565b610c42565b60405161038b919061206b565b60405180910390f35b61039c610c60565b6040516103a99190612243565b60405180910390f35b6103cc60048036038101906103c7919061184a565b610c66565b6040516103d99190612243565b60405180910390f35b6103ea610ced565b6040516103f79190612243565b60405180910390f35b61041a60048036038101906104159190611911565b610cf3565b6040516104279190612243565b60405180910390f35b61044a60048036038101906104459190611821565b610d17565b005b60606003805461045b90612607565b80601f016020809104026020016040519081016040528092919081815260200182805461048790612607565b80156104d45780601f106104a9576101008083540402835291602001916104d4565b820191906000526020600020905b8154815290600101906020018083116104b757829003601f168201915b5050505050905090565b60006104f26104eb610ec3565b8484610ecb565b6001905092915050565b60086020528060005260406000206000915090505481565b6000600654905090565b600061052b848484611096565b6000600160008673ffffffffffffffffffffffffffffffffffffffff1673ffffffffffffffffffffffffffffffffffffffff1681526020019081526020016000206000610576610ec3565b73ffffffffffffffffffffffffffffffffffffffff1673ffffffffffffffffffffffffffffffffffffffff168152602001908152602001600020549050828110156105f6576040517f08c379a00000000000000000000000000000000000000000000000000000000081526004016105ed90612143565b60405180910390fd5b61061385610602610ec3565b858461060e9190612532565b610ecb565b60019150509392505050565b60006012905090565b60006106ca610635610ec3565b848460016000610643610ec3565b73ffffffffffffffffffffffffffffffffffffffff1673ffffffffffffffffffffffffffffffffffffffff16815260200190815260200160002060008873ffffffffffffffffffffffffffffffffffffffff1673ffffffffffffffffffffffffffffffffffffffff168152602001908152602001600020546106c59190612451565b610ecb565b6001905092915050565b6106e56106df610ec3565b836111eb565b7f44b0368955968a3e4d3068c5dfb49fc0b2f2093d766a929af2d0cff02f831b6882826040516107169291906122a3565b60405180910390a15050565b61072a610ec3565b73ffffffffffffffffffffffffffffffffffffffff16610748610a92565b73ffffffffffffffffffffffffffffffffffffffff161461079e576040517f08c379a000000000000000000000000000000000000000000000000000000000815260040161079590612163565b60405180910390fd5b82600660008282546107b09190612451565b9250508190555060005b82518110156108605761084d8382815181106107ff577f4e487b7100000000000000000000000000000000000000000000000000000000600052603260045260246000fd5b6020026020010151838381518110610840577f4e487b7100000000000000000000000000000000000000000000000000000000600052603260045260246000fd5b6020026020010151611399565b808061085890612639565b9150506107ba565b507f5981c722c80ec5ac96ac1a266cd7f33c1b6bf50d8e264f24e2319d85b49829e78383836040516020016108979392919061225e565b604051602081830303815290604052805190602001206040516108ba9190612086565b60405180910390a1505050565b60006006546001600654600754856108df91906124d8565b6108e99190612451565b6108f39190612532565b6108fd91906124a7565b9050919050565b600061094e600860008473ffffffffffffffffffffffffffffffffffffffff1673ffffffffffffffffffffffffffffffffffffffff16815260200190815260200160002054610cf3565b9050919050565b61095d610ec3565b73ffffffffffffffffffffffffffffffffffffffff1661097b610a92565b73ffffffffffffffffffffffffffffffffffffffff16146109d1576040517f08c379a00000000000000000000000000000000000000000000000000000000081526004016109c890612163565b60405180910390fd5b600073ffffffffffffffffffffffffffffffffffffffff16600560009054906101000a900473ffffffffffffffffffffffffffffffffffffffff1673ffffffffffffffffffffffffffffffffffffffff167f8be0079c531659141344cd1fd0a4f28419497f9722a3daafe3b4186f6b6457e060405160405180910390a36000600560006101000a81548173ffffffffffffffffffffffffffffffffffffffff021916908373ffffffffffffffffffffffffffffffffffffffff160217905550565b6000600560009054906101000a900473ffffffffffffffffffffffffffffffffffffffff16905090565b606060048054610acb90612607565b80601f0160208091040260200160405190810160405280929190818152602001828054610af790612607565b8015610b445780601f10610b1957610100808354040283529160200191610b44565b820191906000526020600020905b815481529060010190602001808311610b2757829003601f168201915b5050505050905090565b60008060016000610b5d610ec3565b73ffffffffffffffffffffffffffffffffffffffff1673ffffffffffffffffffffffffffffffffffffffff16815260200190815260200160002060008573ffffffffffffffffffffffffffffffffffffffff1673ffffffffffffffffffffffffffffffffffffffff16815260200190815260200160002054905082811015610c1a576040517f08c379a0000000000000000000000000000000000000000000000000000000008152600401610c1190612203565b60405180910390fd5b610c37610c25610ec3565b858584610c329190612532565b610ecb565b600191505092915050565b6000610c56610c4f610ec3565b8484611096565b6001905092915050565b60065481565b6000600160008473ffffffffffffffffffffffffffffffffffffffff1673ffffffffffffffffffffffffffffffffffffffff16815260200190815260200160002060008373ffffffffffffffffffffffffffffffffffffffff1673ffffffffffffffffffffffffffffffffffffffff16815260200190815260200160002054905092915050565b60075481565b600060075460065483610d0691906124d8565b610d1091906124a7565b9050919050565b610d1f610ec3565b73ffffffffffffffffffffffffffffffffffffffff16610d3d610a92565b73ffffffffffffffffffffffffffffffffffffffff1614610d93576040517f08c379a0000000000000000000000000000000000000000000000000000000008152600401610d8a90612163565b60405180910390fd5b600073ffffffffffffffffffffffffffffffffffffffff168173ffffffffffffffffffffffffffffffffffffffff161415610e03576040517f08c379a0000000000000000000000000000000000000000000000000000000008152600401610dfa90612103565b60405180910390fd5b8073ffffffffffffffffffffffffffffffffffffffff16600560009054906101000a900473ffffffffffffffffffffffffffffffffffffffff1673ffffffffffffffffffffffffffffffffffffffff167f8be0079c531659141344cd1fd0a4f28419497f9722a3daafe3b4186f6b6457e060405160405180910390a380600560006101000a81548173ffffffffffffffffffffffffffffffffffffffff021916908373ffffffffffffffffffffffffffffffffffffffff16021790555050565b600033905090565b600073ffffffffffffffffffffffffffffffffffffffff168373ffffffffffffffffffffffffffffffffffffffff161415610f3b576040517f08c379a0000000000000000000000000000000000000000000000000000000008152600401610f32906121c3565b60405180910390fd5b600073ffffffffffffffffffffffffffffffffffffffff168273ffffffffffffffffffffffffffffffffffffffff161415610fab576040517f08c379a0000000000000000000000000000000000000000000000000000000008152600401610fa290612123565b60405180910390fd5b80600160008573ffffffffffffffffffffffffffffffffffffffff1673ffffffffffffffffffffffffffffffffffffffff16815260200190815260200160002060008473ffffffffffffffffffffffffffffffffffffffff1673ffffffffffffffffffffffffffffffffffffffff168152602001908152602001600020819055508173ffffffffffffffffffffffffffffffffffffffff168373ffffffffffffffffffffffffffffffffffffffff167f8c5be1e5ebec7d5bd14f71427d1e84f3dd0314c0f7b2291e5b200ac8c7c3b925836040516110899190612243565b60405180910390a3505050565b600073ffffffffffffffffffffffffffffffffffffffff168373ffffffffffffffffffffffffffffffffffffffff161415611106576040517f08c379a00000000000000000000000000000000000000000000000000000000081526004016110fd906121a3565b60405180910390fd5b600073ffffffffffffffffffffffffffffffffffffffff168273ffffffffffffffffffffffffffffffffffffffff161415611176576040517f08c379a000000000000000000000000000000000000000000000000000000000815260040161116d906120c3565b60405180910390fd5b6111818383836114b7565b8173ffffffffffffffffffffffffffffffffffffffff168373ffffffffffffffffffffffffffffffffffffffff167fddf252ad1be2c89b69c2b068fc378daa952ba7f163c4a11628f55a4df523b3ef836040516111de9190612243565b60405180910390a3505050565b600073ffffffffffffffffffffffffffffffffffffffff168273ffffffffffffffffffffffffffffffffffffffff16141561125b576040517f08c379a000000000000000000000000000000000000000000000000000000000815260040161125290612183565b60405180910390fd5b60006112a5600860008573ffffffffffffffffffffffffffffffffffffffff1673ffffffffffffffffffffffffffffffffffffffff16815260200190815260200160002054610cf3565b9050818110156112ea576040517f08c379a00000000000000000000000000000000000000000000000000000000081526004016112e1906121e3565b60405180910390fd5b6000826006546112fa9190612532565b905060006006546007548361130f91906124d8565b61131991906124a7565b905060008160075461132b9190612532565b9050816007819055508260068190555080600860008873ffffffffffffffffffffffffffffffffffffffff1673ffffffffffffffffffffffffffffffffffffffff168152602001908152602001600020600082825461138a9190612532565b92505081905550505050505050565b600073ffffffffffffffffffffffffffffffffffffffff168273ffffffffffffffffffffffffffffffffffffffff161415611409576040517f08c379a000000000000000000000000000000000000000000000000000000000815260040161140090612223565b60405180910390fd5b6000816006546114199190612451565b905060006006546007548361142e91906124d8565b61143891906124a7565b905060006007548261144a9190612532565b9050816007819055508260068190555080600860008773ffffffffffffffffffffffffffffffffffffffff1673ffffffffffffffffffffffffffffffffffffffff16815260200190815260200160002060008282546114a99190612451565b925050819055505050505050565b60006114c2826108c7565b90506000600860008673ffffffffffffffffffffffffffffffffffffffff1673ffffffffffffffffffffffffffffffffffffffff1681526020019081526020016000205490508181101561154b576040517f08c379a0000000000000000000000000000000000000000000000000000000008152600401611542906120e3565b60405180910390fd5b81600860008773ffffffffffffffffffffffffffffffffffffffff1673ffffffffffffffffffffffffffffffffffffffff168152602001908152602001600020600082825461159a9190612532565b9250508190555081600860008673ffffffffffffffffffffffffffffffffffffffff1673ffffffffffffffffffffffffffffffffffffffff16815260200190815260200160002060008282546115f09190612451565b925050819055508373ffffffffffffffffffffffffffffffffffffffff168573ffffffffffffffffffffffffffffffffffffffff167fddf252ad1be2c89b69c2b068fc378daa952ba7f163c4a11628f55a4df523b3ef856040516116549190612243565b60405180910390a35050505050565b60006116766116718461231f565b6122ee565b9050808382526020820190508285602086028201111561169557600080fd5b60005b858110156116c557816116ab8882611779565b845260208401935060208301925050600181019050611698565b5050509392505050565b60006116e26116dd8461234b565b6122ee565b9050808382526020820190508285602086028201111561170157600080fd5b60005b858110156117315781611717888261180c565b845260208401935060208301925050600181019050611704565b5050509392505050565b600061174e61174984612377565b6122ee565b90508281526020810184848401111561176657600080fd5b6117718482856125c5565b509392505050565b6000813590506117888161274f565b92915050565b600082601f83011261179f57600080fd5b81356117af848260208601611663565b91505092915050565b600082601f8301126117c957600080fd5b81356117d98482602086016116cf565b91505092915050565b600082601f8301126117f357600080fd5b813561180384826020860161173b565b91505092915050565b60008135905061181b81612766565b92915050565b60006020828403121561183357600080fd5b600061184184828501611779565b91505092915050565b6000806040838503121561185d57600080fd5b600061186b85828601611779565b925050602061187c85828601611779565b9150509250929050565b60008060006060848603121561189b57600080fd5b60006118a986828701611779565b93505060206118ba86828701611779565b92505060406118cb8682870161180c565b9150509250925092565b600080604083850312156118e857600080fd5b60006118f685828601611779565b92505060206119078582860161180c565b9150509250929050565b60006020828403121561192357600080fd5b60006119318482850161180c565b91505092915050565b60008060006060848603121561194f57600080fd5b600061195d8682870161180c565b935050602084013567ffffffffffffffff81111561197a57600080fd5b6119868682870161178e565b925050604084013567ffffffffffffffff8111156119a357600080fd5b6119af868287016117b8565b9150509250925092565b600080604083850312156119cc57600080fd5b60006119da8582860161180c565b925050602083013567ffffffffffffffff8111156119f757600080fd5b611a03858286016117e2565b9150509250929050565b6000611a198383611a3d565b60208301905092915050565b6000611a318383612023565b60208301905092915050565b611a4681612566565b82525050565b611a5581612566565b82525050565b6000611a66826123c7565b611a70818561240d565b9350611a7b836123a7565b8060005b83811015611aac578151611a938882611a0d565b9750611a9e836123f3565b925050600181019050611a7f565b5085935050505092915050565b6000611ac4826123d2565b611ace818561241e565b9350611ad9836123b7565b8060005b83811015611b0a578151611af18882611a25565b9750611afc83612400565b925050600181019050611add565b5085935050505092915050565b611b2081612578565b82525050565b611b2f81612584565b82525050565b6000611b40826123dd565b611b4a818561242f565b9350611b5a8185602086016125d4565b611b638161273e565b840191505092915050565b6000611b79826123e8565b611b838185612440565b9350611b938185602086016125d4565b611b9c8161273e565b840191505092915050565b6000611bb4602383612440565b91507f45524332303a207472616e7366657220746f20746865207a65726f206164647260008301527f65737300000000000000000000000000000000000000000000000000000000006020830152604082019050919050565b6000611c1a602783612440565b91507f4552433737373a207472616e7366657220616d6f756e7420657863656564732060008301527f62616c616e6365000000000000000000000000000000000000000000000000006020830152604082019050919050565b6000611c80602683612440565b91507f4f776e61626c653a206e6577206f776e657220697320746865207a65726f206160008301527f64647265737300000000000000000000000000000000000000000000000000006020830152604082019050919050565b6000611ce6602283612440565b91507f45524332303a20617070726f766520746f20746865207a65726f20616464726560008301527f73730000000000000000000000000000000000000000000000000000000000006020830152604082019050919050565b6000611d4c602883612440565b91507f45524332303a207472616e7366657220616d6f756e742065786365656473206160008301527f6c6c6f77616e63650000000000000000000000000000000000000000000000006020830152604082019050919050565b6000611db2602083612440565b91507f4f776e61626c653a2063616c6c6572206973206e6f7420746865206f776e65726000830152602082019050919050565b6000611df2602183612440565b91507f45524332303a206275726e2066726f6d20746865207a65726f2061646472657360008301527f73000000000000000000000000000000000000000000000000000000000000006020830152604082019050919050565b6000611e58602583612440565b91507f45524332303a207472616e736665722066726f6d20746865207a65726f20616460008301527f64726573730000000000000000000000000000000000000000000000000000006020830152604082019050919050565b6000611ebe602483612440565b91507f45524332303a20617070726f76652066726f6d20746865207a65726f2061646460008301527f72657373000000000000000000000000000000000000000000000000000000006020830152604082019050919050565b6000611f24602383612440565b91507f4552433737373a206275726e20616d6f756e7420657863656564732062616c6160008301527f6e636500000000000000000000000000000000000000000000000000000000006020830152604082019050919050565b6000611f8a602583612440565b91507f45524332303a2064656372656173656420616c6c6f77616e63652062656c6f7760008301527f207a65726f0000000000000000000000000000000000000000000000000000006020830152604082019050919050565b6000611ff0601f83612440565b91507f45524332303a206d696e7420746f20746865207a65726f2061646472657373006000830152602082019050919050565b61202c816125ae565b82525050565b61203b816125ae565b82525050565b61204a816125b8565b82525050565b60006020820190506120656000830184611a4c565b92915050565b60006020820190506120806000830184611b17565b92915050565b600060208201905061209b6000830184611b26565b92915050565b600060208201905081810360008301526120bb8184611b6e565b905092915050565b600060208201905081810360008301526120dc81611ba7565b9050919050565b600060208201905081810360008301526120fc81611c0d565b9050919050565b6000602082019050818103600083015261211c81611c73565b9050919050565b6000602082019050818103600083015261213c81611cd9565b9050919050565b6000602082019050818103600083015261215c81611d3f565b9050919050565b6000602082019050818103600083015261217c81611da5565b9050919050565b6000602082019050818103600083015261219c81611de5565b9050919050565b600060208201905081810360008301526121bc81611e4b565b9050919050565b600060208201905081810360008301526121dc81611eb1565b9050919050565b600060208201905081810360008301526121fc81611f17565b9050919050565b6000602082019050818103600083015261221c81611f7d565b9050919050565b6000602082019050818103600083015261223c81611fe3565b9050919050565b60006020820190506122586000830184612032565b92915050565b60006060820190506122736000830186612032565b81810360208301526122858185611a5b565b905081810360408301526122998184611ab9565b9050949350505050565b60006040820190506122b86000830185612032565b81810360208301526122ca8184611b35565b90509392505050565b60006020820190506122e86000830184612041565b92915050565b6000604051905081810181811067ffffffffffffffff821117156123155761231461270f565b5b8060405250919050565b600067ffffffffffffffff82111561233a5761233961270f565b5b602082029050602081019050919050565b600067ffffffffffffffff8211156123665761236561270f565b5b602082029050602081019050919050565b600067ffffffffffffffff8211156123925761239161270f565b5b601f19601f8301169050602081019050919050565b6000819050602082019050919050565b6000819050602082019050919050565b600081519050919050565b600081519050919050565b600081519050919050565b600081519050919050565b6000602082019050919050565b6000602082019050919050565b600082825260208201905092915050565b600082825260208201905092915050565b600082825260208201905092915050565b600082825260208201905092915050565b600061245c826125ae565b9150612467836125ae565b9250827fffffffffffffffffffffffffffffffffffffffffffffffffffffffffffffffff0382111561249c5761249b612682565b5b828201905092915050565b60006124b2826125ae565b91506124bd836125ae565b9250826124cd576124cc6126b1565b5b828204905092915050565b60006124e3826125ae565b91506124ee836125ae565b9250817fffffffffffffffffffffffffffffffffffffffffffffffffffffffffffffffff048311821515161561252757612526612682565b5b828202905092915050565b600061253d826125ae565b9150612548836125ae565b92508282101561255b5761255a612682565b5b828203905092915050565b60006125718261258e565b9050919050565b60008115159050919050565b6000819050919050565b600073ffffffffffffffffffffffffffffffffffffffff82169050919050565b6000819050919050565b600060ff82169050919050565b82818337600083830152505050565b60005b838110156125f25780820151818401526020810190506125d7565b83811115612601576000848401525b50505050565b6000600282049050600182168061261f57607f821691505b60208210811415612633576126326126e0565b5b50919050565b6000612644826125ae565b91507fffffffffffffffffffffffffffffffffffffffffffffffffffffffffffffffff82141561267757612676612682565b5b600182019050919050565b7f4e487b7100000000000000000000000000000000000000000000000000000000600052601160045260246000fd5b7f4e487b7100000000000000000000000000000000000000000000000000000000600052601260045260246000fd5b7f4e487b7100000000000000000000000000000000000000000000000000000000600052602260045260246000fd5b7f4e487b7100000000000000000000000000000000000000000000000000000000600052604160045260246000fd5b6000601f19601f8301169050919050565b61275881612566565b811461276357600080fd5b50565b61276f816125ae565b811461277a57600080fd5b5056fea2646970667358221220b6d2650ba1d13ddd0d6424827a4b0b0b07e49c275e5b46af31acb00e9b493e0164736f6c63430008000033",
  "immutableReferences": {},
  "source": "// SPDX-License-Identifier: MIT\npragma solidity ^0.8.0;\n\nimport \"@openzeppelin/contracts/token/ERC20/ERC20.sol\";\nimport \"@openzeppelin/contracts/access/Ownable.sol\";\n\ncontract MeToken is ERC20(\"MeToken\", \"UME\"), Ownable{\n  \n    uint public _totalAtoms;\n    uint public _totalPoints;\n    mapping(address =>uint256) public _points;\n    constructor(){\n        _totalPoints = 10e18;\n        _totalAtoms = 10e18;\n    }\n    function atomsToPoints(uint atoms) public view returns (uint256) { // rounds up\n        return (atoms * _totalPoints + _totalAtoms - 1) / _totalAtoms;\n    }\n    function pointsToAtoms(uint points) public view returns (uint256) {// rounds down\n        return points * _totalAtoms / _totalPoints;\n    }\n   function _move(\n        address from,\n        address to,\n        uint256 amount\n    )\n        private\n    {\n\n        uint256 pointAmount = atomsToPoints(amount);// rounded up so the receiver gets *at least* the amount sent\n        uint256 fromBalance = _points[from];\n        require(fromBalance >= pointAmount, \"ERC777: transfer amount exceeds balance\");\n        _points[from] -= pointAmount;\n        _points[to] += pointAmount;\n\n        emit Transfer(from, to, amount);\n    }\n\n    function totalSupply() public view virtual override returns (uint256) {\n        return _totalAtoms;\n    }\n\n    function balanceOf(address tokenHolder) public view virtual override returns (uint256) {\n        return pointsToAtoms(_points[tokenHolder]);\n    }\n\n    function _transfer(address sender, address recipient, uint256 amount) internal virtual override {\n        require(sender != address(0), \"ERC20: transfer from the zero address\");\n        require(recipient != address(0), \"ERC20: transfer to the zero address\");\n\n        _move(sender,recipient, amount);\n\n        emit Transfer(sender, recipient, amount);\n    }\n\n\n    // Initiated by our servers at a regular time interval. access controlled\n    // Users first have to run `initiateTransferToEthereum()` from cosmos\n    function unlockOnEthereum(uint newTotalAtoms, address[] memory minters, uint[] memory mintAmounts) public onlyOwner {\n        _totalAtoms += newTotalAtoms;\n\n        for(uint i = 0 ; i < minters.length; i++){\n            _mint(minters[i], mintAmounts[i]);\n        }\n        emit UnlockOnEthereum(keccak256(abi.encode(newTotalAtoms, minters, mintAmounts)));\n    }\n    event UnlockOnEthereum(bytes32 digest);\n    function _mint(address account, uint256 amount) internal virtual override {\n        require(account != address(0), \"ERC20: mint to the zero address\");\n\n        uint newTotalAtoms = _totalAtoms + amount;\n        uint newTotalPoints = newTotalAtoms * _totalPoints / _totalAtoms;\n        uint points = newTotalPoints - _totalPoints;\n        _totalPoints = newTotalPoints;\n        _totalAtoms = newTotalAtoms;\n        _points[account] += points;\n    }\n\n    // Initiated by individual users at any time.\n    // After a waiting period, `unlockOnCosmos()` will be initiated by umee bridge servers.\n    function initiateTransferToCosmos(uint256 amount, bytes memory cosmosAddress) public { // user initiates\n        _burn(_msgSender(), amount);\n        emit InitiateTransferToCosmos(amount, cosmosAddress);\n    }\n    event InitiateTransferToCosmos(uint amount, bytes cosmosAddress);\n    // note: may be non-standard `_burn` because it changes `totalSupply`\n    function _burn(address account, uint256 amount) internal virtual override {\n        require(account != address(0), \"ERC20: burn from the zero address\");\n\n        uint256 fromBalance = pointsToAtoms(_points[account]);\n        require(fromBalance >= amount, \"ERC777: burn amount exceeds balance\");\n        \n        uint newTotalAtoms = _totalAtoms - amount;\n        uint newTotalPoints = newTotalAtoms * _totalPoints / _totalAtoms;\n        uint points = _totalPoints - newTotalPoints;\n        _totalPoints = newTotalPoints;\n        _totalAtoms = newTotalAtoms;\n        _points[account] -= points;\n    }\n\n}\n\n\n",
  "sourcePath": "/Users/zacharymitton/Dropbox/zac_mitton/dev/ethereum/umee/umee-contracts/contracts/MeToken.sol",
  "compiler": {
    "name": "solc",
    "version": "0.8.0+commit.c7dfd78e.Emscripten.clang"
  },
  "schemaVersion": "3.3.4",
  "updatedAt": "2021-07-11T18:19:35.031Z",
  "networkType": "ethereum",
  "devdoc": {
    "kind": "dev",
    "methods": {
      "allowance(address,address)": {
        "details": "See {IERC20-allowance}."
      },
      "approve(address,uint256)": {
        "details": "See {IERC20-approve}. Requirements: - `spender` cannot be the zero address."
      },
      "decimals()": {
        "details": "Returns the number of decimals used to get its user representation. For example, if `decimals` equals `2`, a balance of `505` tokens should be displayed to a user as `5,05` (`505 / 10 ** 2`). Tokens usually opt for a value of 18, imitating the relationship between Ether and Wei. This is the value {ERC20} uses, unless this function is overridden; NOTE: This information is only used for _display_ purposes: it in no way affects any of the arithmetic of the contract, including {IERC20-balanceOf} and {IERC20-transfer}."
      },
      "decreaseAllowance(address,uint256)": {
        "details": "Atomically decreases the allowance granted to `spender` by the caller. This is an alternative to {approve} that can be used as a mitigation for problems described in {IERC20-approve}. Emits an {Approval} event indicating the updated allowance. Requirements: - `spender` cannot be the zero address. - `spender` must have allowance for the caller of at least `subtractedValue`."
      },
      "increaseAllowance(address,uint256)": {
        "details": "Atomically increases the allowance granted to `spender` by the caller. This is an alternative to {approve} that can be used as a mitigation for problems described in {IERC20-approve}. Emits an {Approval} event indicating the updated allowance. Requirements: - `spender` cannot be the zero address."
      },
      "name()": {
        "details": "Returns the name of the token."
      },
      "owner()": {
        "details": "Returns the address of the current owner."
      },
      "renounceOwnership()": {
        "details": "Leaves the contract without owner. It will not be possible to call `onlyOwner` functions anymore. Can only be called by the current owner. NOTE: Renouncing ownership will leave the contract without an owner, thereby removing any functionality that is only available to the owner."
      },
      "symbol()": {
        "details": "Returns the symbol of the token, usually a shorter version of the name."
      },
      "totalSupply()": {
        "details": "See {IERC20-totalSupply}."
      },
      "transfer(address,uint256)": {
        "details": "See {IERC20-transfer}. Requirements: - `recipient` cannot be the zero address. - the caller must have a balance of at least `amount`."
      },
      "transferFrom(address,address,uint256)": {
        "details": "See {IERC20-transferFrom}. Emits an {Approval} event indicating the updated allowance. This is not required by the EIP. See the note at the beginning of {ERC20}. Requirements: - `sender` and `recipient` cannot be the zero address. - `sender` must have a balance of at least `amount`. - the caller must have allowance for ``sender``'s tokens of at least `amount`."
      },
      "transferOwnership(address)": {
        "details": "Transfers ownership of the contract to a new account (`newOwner`). Can only be called by the current owner."
      }
    },
    "version": 1
  },
  "userdoc": {
    "kind": "user",
    "methods": {},
    "version": 1
  }
}