{
  "contractName": "MeTokenTest",
  "abi": [
    {
      "inputs": [],
      "stateMutability": "nonpayable",
      "type": "constructor"
    },
    {
      "anonymous": false,
      "inputs": [
        {
          "indexed": true,
          "internalType": "address",
          "name": "owner",
          "type": "address"
        },
        {
          "indexed": true,
          "internalType": "address",
          "name": "spender",
          "type": "address"
        },
        {
          "indexed": false,
          "internalType": "uint256",
          "name": "value",
          "type": "uint256"
        }
      ],
      "name": "Approval",
      "type": "event"
    },
    {
      "anonymous": false,
      "inputs": [
        {
          "indexed": true,
          "internalType": "address",
          "name": "from",
          "type": "address"
        },
        {
          "indexed": true,
          "internalType": "address",
          "name": "to",
          "type": "address"
        },
        {
          "indexed": false,
          "internalType": "uint256",
          "name": "value",
          "type": "uint256"
        }
      ],
      "name": "Transfer",
      "type": "event"
    },
    {
      "inputs": [
        {
          "internalType": "address",
          "name": "",
          "type": "address"
        }
      ],
      "name": "_points",
      "outputs": [
        {
          "internalType": "uint256",
          "name": "",
          "type": "uint256"
        }
      ],
      "stateMutability": "view",
      "type": "function",
      "constant": true
    },
    {
      "inputs": [],
      "name": "_totalAtoms",
      "outputs": [
        {
          "internalType": "uint256",
          "name": "",
          "type": "uint256"
        }
      ],
      "stateMutability": "view",
      "type": "function",
      "constant": true
    },
    {
      "inputs": [],
      "name": "_totalPoints",
      "outputs": [
        {
          "internalType": "uint256",
          "name": "",
          "type": "uint256"
        }
      ],
      "stateMutability": "view",
      "type": "function",
      "constant": true
    },
    {
      "inputs": [
        {
          "internalType": "address",
          "name": "owner",
          "type": "address"
        },
        {
          "internalType": "address",
          "name": "spender",
          "type": "address"
        }
      ],
      "name": "allowance",
      "outputs": [
        {
          "internalType": "uint256",
          "name": "",
          "type": "uint256"
        }
      ],
      "stateMutability": "view",
      "type": "function",
      "constant": true
    },
    {
      "inputs": [
        {
          "internalType": "address",
          "name": "spender",
          "type": "address"
        },
        {
          "internalType": "uint256",
          "name": "amount",
          "type": "uint256"
        }
      ],
      "name": "approve",
      "outputs": [
        {
          "internalType": "bool",
          "name": "",
          "type": "bool"
        }
      ],
      "stateMutability": "nonpayable",
      "type": "function"
    },
    {
      "inputs": [],
      "name": "decimals",
      "outputs": [
        {
          "internalType": "uint8",
          "name": "",
          "type": "uint8"
        }
      ],
      "stateMutability": "view",
      "type": "function",
      "constant": true
    },
    {
      "inputs": [
        {
          "internalType": "address",
          "name": "spender",
          "type": "address"
        },
        {
          "internalType": "uint256",
          "name": "subtractedValue",
          "type": "uint256"
        }
      ],
      "name": "decreaseAllowance",
      "outputs": [
        {
          "internalType": "bool",
          "name": "",
          "type": "bool"
        }
      ],
      "stateMutability": "nonpayable",
      "type": "function"
    },
    {
      "inputs": [
        {
          "internalType": "address",
          "name": "spender",
          "type": "address"
        },
        {
          "internalType": "uint256",
          "name": "addedValue",
          "type": "uint256"
        }
      ],
      "name": "increaseAllowance",
      "outputs": [
        {
          "internalType": "bool",
          "name": "",
          "type": "bool"
        }
      ],
      "stateMutability": "nonpayable",
      "type": "function"
    },
    {
      "inputs": [],
      "name": "name",
      "outputs": [
        {
          "internalType": "string",
          "name": "",
          "type": "string"
        }
      ],
      "stateMutability": "view",
      "type": "function",
      "constant": true
    },
    {
      "inputs": [],
      "name": "symbol",
      "outputs": [
        {
          "internalType": "string",
          "name": "",
          "type": "string"
        }
      ],
      "stateMutability": "view",
      "type": "function",
      "constant": true
    },
    {
      "inputs": [
        {
          "internalType": "address",
          "name": "recipient",
          "type": "address"
        },
        {
          "internalType": "uint256",
          "name": "amount",
          "type": "uint256"
        }
      ],
      "name": "transfer",
      "outputs": [
        {
          "internalType": "bool",
          "name": "",
          "type": "bool"
        }
      ],
      "stateMutability": "nonpayable",
      "type": "function"
    },
    {
      "inputs": [
        {
          "internalType": "address",
          "name": "sender",
          "type": "address"
        },
        {
          "internalType": "address",
          "name": "recipient",
          "type": "address"
        },
        {
          "internalType": "uint256",
          "name": "amount",
          "type": "uint256"
        }
      ],
      "name": "transferFrom",
      "outputs": [
        {
          "internalType": "bool",
          "name": "",
          "type": "bool"
        }
      ],
      "stateMutability": "nonpayable",
      "type": "function"
    },
    {
      "inputs": [
        {
          "internalType": "uint256",
          "name": "atoms",
          "type": "uint256"
        }
      ],
      "name": "atomsToPoints",
      "outputs": [
        {
          "internalType": "uint256",
          "name": "",
          "type": "uint256"
        }
      ],
      "stateMutability": "view",
      "type": "function",
      "constant": true
    },
    {
      "inputs": [
        {
          "internalType": "uint256",
          "name": "points",
          "type": "uint256"
        }
      ],
      "name": "pointsToAtoms",
      "outputs": [
        {
          "internalType": "uint256",
          "name": "",
          "type": "uint256"
        }
      ],
      "stateMutability": "view",
      "type": "function",
      "constant": true
    },
    {
      "inputs": [
        {
          "internalType": "uint256",
          "name": "newTotal",
          "type": "uint256"
        }
      ],
      "name": "_updateTotalAtomSupply",
      "outputs": [],
      "stateMutability": "nonpayable",
      "type": "function"
    },
    {
      "inputs": [],
      "name": "totalSupply",
      "outputs": [
        {
          "internalType": "uint256",
          "name": "",
          "type": "uint256"
        }
      ],
      "stateMutability": "view",
      "type": "function",
      "constant": true
    },
    {
      "inputs": [
        {
          "internalType": "address",
          "name": "tokenHolder",
          "type": "address"
        }
      ],
      "name": "balanceOf",
      "outputs": [
        {
          "internalType": "uint256",
          "name": "",
          "type": "uint256"
        }
      ],
      "stateMutability": "view",
      "type": "function",
      "constant": true
    },
    {
      "inputs": [
        {
          "internalType": "address",
          "name": "account",
          "type": "address"
        },
        {
          "internalType": "uint256",
          "name": "amount",
          "type": "uint256"
        }
      ],
      "name": "mint",
      "outputs": [],
      "stateMutability": "nonpayable",
      "type": "function"
    },
    {
      "inputs": [
        {
          "internalType": "address",
          "name": "account",
          "type": "address"
        },
        {
          "internalType": "uint256",
          "name": "amount",
          "type": "uint256"
        }
      ],
      "name": "burn",
      "outputs": [],
      "stateMutability": "nonpayable",
      "type": "function"
    }
  ],
  "bytecode": "0x60806040523480156200001157600080fd5b506040518060400160405280600b81526020017f4d65546f6b656e546573740000000000000000000000000000000000000000008152506040518060400160405280600381526020017f554d450000000000000000000000000000000000000000000000000000000000815250816003908051906020019062000096929190620000d6565b508060049080519060200190620000af929190620000d6565b505050678ac7230489e80000600681905550678ac7230489e80000600581905550620001eb565b828054620000e49062000186565b90600052602060002090601f01602090048101928262000108576000855562000154565b82601f106200012357805160ff191683800117855562000154565b8280016001018555821562000154579182015b828111156200015357825182559160200191906001019062000136565b5b50905062000163919062000167565b5090565b5b808211156200018257600081600090555060010162000168565b5090565b600060028204905060018216806200019f57607f821691505b60208210811415620001b657620001b5620001bc565b5b50919050565b7f4e487b7100000000000000000000000000000000000000000000000000000000600052602260045260246000fd5b611c3080620001fb6000396000f3fe608060405234801561001057600080fd5b50600436106101215760003560e01c80635eb873be116100ad578063a9059cbb11610071578063a9059cbb14610342578063d41b430f14610372578063dd62ed3e14610390578063e5590d82146103c0578063e614b21d146103de57610121565b80635eb873be1461027857806370a08231146102a857806395d89b41146102d85780639dc29fac146102f6578063a457c2d71461031257610121565b806323b872dd116100f457806323b872dd146101c2578063313ce567146101f2578063395093511461021057806340c10f1914610240578063481561251461025c57610121565b806306fdde0314610126578063095ea7b3146101445780630ec9c8231461017457806318160ddd146101a4575b600080fd5b61012e61040e565b60405161013b91906117ab565b60405180910390f35b61015e600480360381019061015991906112ef565b6104a0565b60405161016b9190611790565b60405180910390f35b61018e6004803603810190610189919061123b565b6104be565b60405161019b919061190d565b60405180910390f35b6101ac6104d6565b6040516101b9919061190d565b60405180910390f35b6101dc60048036038101906101d791906112a0565b6104e0565b6040516101e99190611790565b60405180910390f35b6101fa6105e1565b6040516102079190611928565b60405180910390f35b61022a600480360381019061022591906112ef565b6105ea565b6040516102379190611790565b60405180910390f35b61025a600480360381019061025591906112ef565b610696565b005b6102766004803603810190610271919061132b565b6106a4565b005b610292600480360381019061028d919061132b565b6106ae565b60405161029f919061190d565b60405180910390f35b6102c260048036038101906102bd919061123b565b6106eb565b6040516102cf919061190d565b60405180910390f35b6102e061073c565b6040516102ed91906117ab565b60405180910390f35b610310600480360381019061030b91906112ef565b6107ce565b005b61032c600480360381019061032791906112ef565b6107dc565b6040516103399190611790565b60405180910390f35b61035c600480360381019061035791906112ef565b6108d0565b6040516103699190611790565b60405180910390f35b61037a6108ee565b604051610387919061190d565b60405180910390f35b6103aa60048036038101906103a59190611264565b6108f4565b6040516103b7919061190d565b60405180910390f35b6103c861097b565b6040516103d5919061190d565b60405180910390f35b6103f860048036038101906103f3919061132b565b610981565b604051610405919061190d565b60405180910390f35b60606003805461041d90611afc565b80601f016020809104026020016040519081016040528092919081815260200182805461044990611afc565b80156104965780601f1061046b57610100808354040283529160200191610496565b820191906000526020600020905b81548152906001019060200180831161047957829003601f168201915b5050505050905090565b60006104b46104ad6109a5565b84846109ad565b6001905092915050565b60076020528060005260406000206000915090505481565b6000600554905090565b60006104ed848484610b78565b6000600160008673ffffffffffffffffffffffffffffffffffffffff1673ffffffffffffffffffffffffffffffffffffffff16815260200190815260200160002060006105386109a5565b73ffffffffffffffffffffffffffffffffffffffff1673ffffffffffffffffffffffffffffffffffffffff168152602001908152602001600020549050828110156105b8576040517f08c379a00000000000000000000000000000000000000000000000000000000081526004016105af9061182d565b60405180910390fd5b6105d5856105c46109a5565b85846105d09190611a40565b6109ad565b60019150509392505050565b60006012905090565b600061068c6105f76109a5565b8484600160006106056109a5565b73ffffffffffffffffffffffffffffffffffffffff1673ffffffffffffffffffffffffffffffffffffffff16815260200190815260200160002060008873ffffffffffffffffffffffffffffffffffffffff1673ffffffffffffffffffffffffffffffffffffffff16815260200190815260200160002054610687919061195f565b6109ad565b6001905092915050565b6106a08282610ccd565b5050565b8060058190555050565b60006005546001600554600654856106c691906119e6565b6106d0919061195f565b6106da9190611a40565b6106e491906119b5565b9050919050565b6000610735600760008473ffffffffffffffffffffffffffffffffffffffff1673ffffffffffffffffffffffffffffffffffffffff16815260200190815260200160002054610981565b9050919050565b60606004805461074b90611afc565b80601f016020809104026020016040519081016040528092919081815260200182805461077790611afc565b80156107c45780601f10610799576101008083540402835291602001916107c4565b820191906000526020600020905b8154815290600101906020018083116107a757829003601f168201915b5050505050905090565b6107d88282610e51565b5050565b600080600160006107eb6109a5565b73ffffffffffffffffffffffffffffffffffffffff1673ffffffffffffffffffffffffffffffffffffffff16815260200190815260200160002060008573ffffffffffffffffffffffffffffffffffffffff1673ffffffffffffffffffffffffffffffffffffffff168152602001908152602001600020549050828110156108a8576040517f08c379a000000000000000000000000000000000000000000000000000000000815260040161089f906118cd565b60405180910390fd5b6108c56108b36109a5565b8585846108c09190611a40565b6109ad565b600191505092915050565b60006108e46108dd6109a5565b8484610b78565b6001905092915050565b60055481565b6000600160008473ffffffffffffffffffffffffffffffffffffffff1673ffffffffffffffffffffffffffffffffffffffff16815260200190815260200160002060008373ffffffffffffffffffffffffffffffffffffffff1673ffffffffffffffffffffffffffffffffffffffff16815260200190815260200160002054905092915050565b60065481565b60006006546005548361099491906119e6565b61099e91906119b5565b9050919050565b600033905090565b600073ffffffffffffffffffffffffffffffffffffffff168373ffffffffffffffffffffffffffffffffffffffff161415610a1d576040517f08c379a0000000000000000000000000000000000000000000000000000000008152600401610a149061188d565b60405180910390fd5b600073ffffffffffffffffffffffffffffffffffffffff168273ffffffffffffffffffffffffffffffffffffffff161415610a8d576040517f08c379a0000000000000000000000000000000000000000000000000000000008152600401610a849061180d565b60405180910390fd5b80600160008573ffffffffffffffffffffffffffffffffffffffff1673ffffffffffffffffffffffffffffffffffffffff16815260200190815260200160002060008473ffffffffffffffffffffffffffffffffffffffff1673ffffffffffffffffffffffffffffffffffffffff168152602001908152602001600020819055508173ffffffffffffffffffffffffffffffffffffffff168373ffffffffffffffffffffffffffffffffffffffff167f8c5be1e5ebec7d5bd14f71427d1e84f3dd0314c0f7b2291e5b200ac8c7c3b92583604051610b6b919061190d565b60405180910390a3505050565b600073ffffffffffffffffffffffffffffffffffffffff168373ffffffffffffffffffffffffffffffffffffffff161415610be8576040517f08c379a0000000000000000000000000000000000000000000000000000000008152600401610bdf9061186d565b60405180910390fd5b600073ffffffffffffffffffffffffffffffffffffffff168273ffffffffffffffffffffffffffffffffffffffff161415610c58576040517f08c379a0000000000000000000000000000000000000000000000000000000008152600401610c4f906117cd565b60405180910390fd5b610c63838383611065565b8173ffffffffffffffffffffffffffffffffffffffff168373ffffffffffffffffffffffffffffffffffffffff167fddf252ad1be2c89b69c2b068fc378daa952ba7f163c4a11628f55a4df523b3ef83604051610cc0919061190d565b60405180910390a3505050565b600073ffffffffffffffffffffffffffffffffffffffff168273ffffffffffffffffffffffffffffffffffffffff161415610d3d576040517f08c379a0000000000000000000000000000000000000000000000000000000008152600401610d34906118ed565b60405180910390fd5b600081600554610d4d919061195f565b9050600060055460065483610d6291906119e6565b610d6c91906119b5565b9050600060065482610d7e9190611a40565b9050816006819055508260058190555080600760008773ffffffffffffffffffffffffffffffffffffffff1673ffffffffffffffffffffffffffffffffffffffff1681526020019081526020016000206000828254610ddd919061195f565b925050819055508473ffffffffffffffffffffffffffffffffffffffff16600073ffffffffffffffffffffffffffffffffffffffff167fddf252ad1be2c89b69c2b068fc378daa952ba7f163c4a11628f55a4df523b3ef86604051610e42919061190d565b60405180910390a35050505050565b600073ffffffffffffffffffffffffffffffffffffffff168273ffffffffffffffffffffffffffffffffffffffff161415610ec1576040517f08c379a0000000000000000000000000000000000000000000000000000000008152600401610eb89061184d565b60405180910390fd5b6000610f0b600760008573ffffffffffffffffffffffffffffffffffffffff1673ffffffffffffffffffffffffffffffffffffffff16815260200190815260200160002054610981565b905081811015610f50576040517f08c379a0000000000000000000000000000000000000000000000000000000008152600401610f47906118ad565b60405180910390fd5b600082600554610f609190611a40565b9050600060055460065483610f7591906119e6565b610f7f91906119b5565b9050600081600654610f919190611a40565b9050816006819055508260058190555080600760008873ffffffffffffffffffffffffffffffffffffffff1673ffffffffffffffffffffffffffffffffffffffff1681526020019081526020016000206000828254610ff09190611a40565b92505081905550600073ffffffffffffffffffffffffffffffffffffffff168673ffffffffffffffffffffffffffffffffffffffff167fddf252ad1be2c89b69c2b068fc378daa952ba7f163c4a11628f55a4df523b3ef87604051611055919061190d565b60405180910390a3505050505050565b6000611070826106ae565b90506000600760008673ffffffffffffffffffffffffffffffffffffffff1673ffffffffffffffffffffffffffffffffffffffff168152602001908152602001600020549050818110156110f9576040517f08c379a00000000000000000000000000000000000000000000000000000000081526004016110f0906117ed565b60405180910390fd5b81600760008773ffffffffffffffffffffffffffffffffffffffff1673ffffffffffffffffffffffffffffffffffffffff16815260200190815260200160002060008282546111489190611a40565b9250508190555081600760008673ffffffffffffffffffffffffffffffffffffffff1673ffffffffffffffffffffffffffffffffffffffff168152602001908152602001600020600082825461119e919061195f565b925050819055508373ffffffffffffffffffffffffffffffffffffffff168573ffffffffffffffffffffffffffffffffffffffff167fddf252ad1be2c89b69c2b068fc378daa952ba7f163c4a11628f55a4df523b3ef85604051611202919061190d565b60405180910390a35050505050565b60008135905061122081611bcc565b92915050565b60008135905061123581611be3565b92915050565b60006020828403121561124d57600080fd5b600061125b84828501611211565b91505092915050565b6000806040838503121561127757600080fd5b600061128585828601611211565b925050602061129685828601611211565b9150509250929050565b6000806000606084860312156112b557600080fd5b60006112c386828701611211565b93505060206112d486828701611211565b92505060406112e586828701611226565b9150509250925092565b6000806040838503121561130257600080fd5b600061131085828601611211565b925050602061132185828601611226565b9150509250929050565b60006020828403121561133d57600080fd5b600061134b84828501611226565b91505092915050565b61135d81611a86565b82525050565b600061136e82611943565b611378818561194e565b9350611388818560208601611ac9565b61139181611bbb565b840191505092915050565b60006113a960238361194e565b91507f45524332303a207472616e7366657220746f20746865207a65726f206164647260008301527f65737300000000000000000000000000000000000000000000000000000000006020830152604082019050919050565b600061140f60278361194e565b91507f4552433737373a207472616e7366657220616d6f756e7420657863656564732060008301527f62616c616e6365000000000000000000000000000000000000000000000000006020830152604082019050919050565b600061147560228361194e565b91507f45524332303a20617070726f766520746f20746865207a65726f20616464726560008301527f73730000000000000000000000000000000000000000000000000000000000006020830152604082019050919050565b60006114db60288361194e565b91507f45524332303a207472616e7366657220616d6f756e742065786365656473206160008301527f6c6c6f77616e63650000000000000000000000000000000000000000000000006020830152604082019050919050565b600061154160218361194e565b91507f45524332303a206275726e2066726f6d20746865207a65726f2061646472657360008301527f73000000000000000000000000000000000000000000000000000000000000006020830152604082019050919050565b60006115a760258361194e565b91507f45524332303a207472616e736665722066726f6d20746865207a65726f20616460008301527f64726573730000000000000000000000000000000000000000000000000000006020830152604082019050919050565b600061160d60248361194e565b91507f45524332303a20617070726f76652066726f6d20746865207a65726f2061646460008301527f72657373000000000000000000000000000000000000000000000000000000006020830152604082019050919050565b600061167360238361194e565b91507f4552433737373a206275726e20616d6f756e7420657863656564732062616c6160008301527f6e636500000000000000000000000000000000000000000000000000000000006020830152604082019050919050565b60006116d960258361194e565b91507f45524332303a2064656372656173656420616c6c6f77616e63652062656c6f7760008301527f207a65726f0000000000000000000000000000000000000000000000000000006020830152604082019050919050565b600061173f601f8361194e565b91507f45524332303a206d696e7420746f20746865207a65726f2061646472657373006000830152602082019050919050565b61177b81611ab2565b82525050565b61178a81611abc565b82525050565b60006020820190506117a56000830184611354565b92915050565b600060208201905081810360008301526117c58184611363565b905092915050565b600060208201905081810360008301526117e68161139c565b9050919050565b6000602082019050818103600083015261180681611402565b9050919050565b6000602082019050818103600083015261182681611468565b9050919050565b60006020820190508181036000830152611846816114ce565b9050919050565b6000602082019050818103600083015261186681611534565b9050919050565b600060208201905081810360008301526118868161159a565b9050919050565b600060208201905081810360008301526118a681611600565b9050919050565b600060208201905081810360008301526118c681611666565b9050919050565b600060208201905081810360008301526118e6816116cc565b9050919050565b6000602082019050818103600083015261190681611732565b9050919050565b60006020820190506119226000830184611772565b92915050565b600060208201905061193d6000830184611781565b92915050565b600081519050919050565b600082825260208201905092915050565b600061196a82611ab2565b915061197583611ab2565b9250827fffffffffffffffffffffffffffffffffffffffffffffffffffffffffffffffff038211156119aa576119a9611b2e565b5b828201905092915050565b60006119c082611ab2565b91506119cb83611ab2565b9250826119db576119da611b5d565b5b828204905092915050565b60006119f182611ab2565b91506119fc83611ab2565b9250817fffffffffffffffffffffffffffffffffffffffffffffffffffffffffffffffff0483118215151615611a3557611a34611b2e565b5b828202905092915050565b6000611a4b82611ab2565b9150611a5683611ab2565b925082821015611a6957611a68611b2e565b5b828203905092915050565b6000611a7f82611a92565b9050919050565b60008115159050919050565b600073ffffffffffffffffffffffffffffffffffffffff82169050919050565b6000819050919050565b600060ff82169050919050565b60005b83811015611ae7578082015181840152602081019050611acc565b83811115611af6576000848401525b50505050565b60006002820490506001821680611b1457607f821691505b60208210811415611b2857611b27611b8c565b5b50919050565b7f4e487b7100000000000000000000000000000000000000000000000000000000600052601160045260246000fd5b7f4e487b7100000000000000000000000000000000000000000000000000000000600052601260045260246000fd5b7f4e487b7100000000000000000000000000000000000000000000000000000000600052602260045260246000fd5b6000601f19601f8301169050919050565b611bd581611a74565b8114611be057600080fd5b50565b611bec81611ab2565b8114611bf757600080fd5b5056fea26469706673582212208aedc068a249cee07293f1a0a3ae337dc519b03cb96e73c7f12a1d3fe84e69bb64736f6c63430008000033",
  "immutableReferences": {},
  "source": "// SPDX-License-Identifier: MIT\npragma solidity ^0.8.0;\n\nimport \"@openzeppelin/contracts/token/ERC20/ERC20.sol\";\n\ncontract MeTokenTest is ERC20(\"MeTokenTest\", \"UME\") {\n  \n    uint public _totalAtoms;\n    uint public _totalPoints;\n    mapping(address =>uint256) public _points;\n    constructor(){\n        _totalPoints = 10e18;\n        _totalAtoms = 10e18;\n        // _totalPoints = 1;\n        // _totalAtoms = 1; //use 1 for testing so we can spot potential issues with ratio mechanism\n    }\n    function atomsToPoints(uint atoms) public view returns (uint256) { // rounds up\n        return (atoms * _totalPoints + _totalAtoms - 1) / _totalAtoms;\n    }\n    function pointsToAtoms(uint points) public view returns (uint256) {// rounds down\n        return points * _totalAtoms / _totalPoints;\n    }\n    function _updateTotalAtomSupply(uint newTotal) public {\n        _totalAtoms = newTotal;\n    }\n   function _move(\n        address from,\n        address to,\n        uint256 amount\n    )\n        private\n    {\n\n        uint256 pointAmount = atomsToPoints(amount);// rounded up so the receiver gets *at least* the amount sent\n        uint256 fromBalance = _points[from];\n        require(fromBalance >= pointAmount, \"ERC777: transfer amount exceeds balance\");\n        _points[from] -= pointAmount;\n        _points[to] += pointAmount;\n\n        emit Transfer(from, to, amount);\n    }\n\n    /**\n     * @dev See {IERC20-totalSupply}.\n     */\n    function totalSupply() public view virtual override returns (uint256) {\n        return _totalAtoms;\n    }\n\n    /**\n     * @dev See {IERC20-balanceOf}.\n     */\n    function balanceOf(address tokenHolder) public view virtual override returns (uint256) {\n        return pointsToAtoms(_points[tokenHolder]);\n    }\n\n    function _transfer(address sender, address recipient, uint256 amount) internal virtual override {\n        require(sender != address(0), \"ERC20: transfer from the zero address\");\n        require(recipient != address(0), \"ERC20: transfer to the zero address\");\n\n        _move(sender,recipient, amount);\n\n        emit Transfer(sender, recipient, amount);\n    }\n\n    /** @dev Creates `amount` tokens and assigns them to `account`, increasing\n     * the total supply.\n     *\n     * Emits a {Transfer} event with `from` set to the zero address.\n     *\n     * Requirements:\n     *\n     * - `to` cannot be the zero address.\n     */\n    function mint(address account, uint256 amount) public {_mint(account, amount);}\n    function _mint(address account, uint256 amount) internal virtual override {// unlock or \"move\" to ethereum\n        require(account != address(0), \"ERC20: mint to the zero address\");\n\n        // _beforeTokenTransfer(address(0), account, amount);\n\n        uint newTotalAtoms = _totalAtoms + amount;\n        uint newTotalPoints =  newTotalAtoms * _totalPoints / _totalAtoms;\n        uint points = newTotalPoints - _totalPoints;\n        _totalPoints = newTotalPoints;\n        _totalAtoms = newTotalAtoms;\n        _points[account] += points;\n\n\n        emit Transfer(address(0), account, amount);\n    }\n\n    /**\n     * @dev Destroys `amount` tokens from `account`, does NOT reduce the\n     * total supply!\n     *\n     * Emits a {Transfer} event with `to` set to the zero address.\n     *\n     * Requirements:\n     *\n     * - `account` cannot be the zero address.\n     * - `account` must have at least `amount` tokens.\n     */\n    function burn(address account, uint256 amount) public {_burn(account, amount);}\n    function _burn(address account, uint256 amount) internal virtual override {// lock or \"move\" back to cosmos\n        require(account != address(0), \"ERC20: burn from the zero address\");\n\n        // _beforeTokenTransfer(account, address(0), amount);\n\n        uint256 fromBalance = pointsToAtoms(_points[account]);\n        require(fromBalance >= amount, \"ERC777: burn amount exceeds balance\");\n        \n        uint newTotalAtoms = _totalAtoms - amount;\n        uint newTotalPoints = newTotalAtoms * _totalPoints / _totalAtoms;\n        uint points = _totalPoints - newTotalPoints;\n        _totalPoints = newTotalPoints;\n        _totalAtoms = newTotalAtoms;\n        _points[account] -= points;\n\n        emit Transfer(account, address(0), amount);\n    }\n}\n\n\n",
  "sourcePath": "/Users/zacharymitton/Dropbox/zac_mitton/dev/ethereum/umee/umee-contracts/contracts/MeTokenTest.sol",
  "compiler": {
    "name": "solc",
    "version": "0.8.0+commit.c7dfd78e.Emscripten.clang"
  },
  "schemaVersion": "3.3.4",
  "updatedAt": "2021-07-11T18:19:35.043Z",
  "networkType": "ethereum",
  "devdoc": {
    "kind": "dev",
    "methods": {
      "allowance(address,address)": {
        "details": "See {IERC20-allowance}."
      },
      "approve(address,uint256)": {
        "details": "See {IERC20-approve}. Requirements: - `spender` cannot be the zero address."
      },
      "balanceOf(address)": {
        "details": "See {IERC20-balanceOf}."
      },
      "burn(address,uint256)": {
        "details": "Destroys `amount` tokens from `account`, does NOT reduce the total supply! Emits a {Transfer} event with `to` set to the zero address. Requirements: - `account` cannot be the zero address. - `account` must have at least `amount` tokens."
      },
      "decimals()": {
        "details": "Returns the number of decimals used to get its user representation. For example, if `decimals` equals `2`, a balance of `505` tokens should be displayed to a user as `5,05` (`505 / 10 ** 2`). Tokens usually opt for a value of 18, imitating the relationship between Ether and Wei. This is the value {ERC20} uses, unless this function is overridden; NOTE: This information is only used for _display_ purposes: it in no way affects any of the arithmetic of the contract, including {IERC20-balanceOf} and {IERC20-transfer}."
      },
      "decreaseAllowance(address,uint256)": {
        "details": "Atomically decreases the allowance granted to `spender` by the caller. This is an alternative to {approve} that can be used as a mitigation for problems described in {IERC20-approve}. Emits an {Approval} event indicating the updated allowance. Requirements: - `spender` cannot be the zero address. - `spender` must have allowance for the caller of at least `subtractedValue`."
      },
      "increaseAllowance(address,uint256)": {
        "details": "Atomically increases the allowance granted to `spender` by the caller. This is an alternative to {approve} that can be used as a mitigation for problems described in {IERC20-approve}. Emits an {Approval} event indicating the updated allowance. Requirements: - `spender` cannot be the zero address."
      },
      "mint(address,uint256)": {
        "details": "Creates `amount` tokens and assigns them to `account`, increasing the total supply. Emits a {Transfer} event with `from` set to the zero address. Requirements: - `to` cannot be the zero address."
      },
      "name()": {
        "details": "Returns the name of the token."
      },
      "symbol()": {
        "details": "Returns the symbol of the token, usually a shorter version of the name."
      },
      "totalSupply()": {
        "details": "See {IERC20-totalSupply}."
      },
      "transfer(address,uint256)": {
        "details": "See {IERC20-transfer}. Requirements: - `recipient` cannot be the zero address. - the caller must have a balance of at least `amount`."
      },
      "transferFrom(address,address,uint256)": {
        "details": "See {IERC20-transferFrom}. Emits an {Approval} event indicating the updated allowance. This is not required by the EIP. See the note at the beginning of {ERC20}. Requirements: - `sender` and `recipient` cannot be the zero address. - `sender` must have a balance of at least `amount`. - the caller must have allowance for ``sender``'s tokens of at least `amount`."
      }
    },
    "version": 1
  },
  "userdoc": {
    "kind": "user",
    "methods": {},
    "version": 1
  }
}